{
  "_format": "hh-sol-artifact-1",
  "contractName": "RevertingBuyer",
  "sourceName": "contracts/RevertingBuyer.sol",
  "abi": [
    {
      "inputs": [],
      "name": "approveAsBuyer",
      "outputs": [],
      "stateMutability": "nonpayable",
      "type": "function"
    },
    {
      "inputs": [],
      "name": "depositAsBuyer",
      "outputs": [],
      "stateMutability": "payable",
      "type": "function"
    },
    {
      "inputs": [],
      "name": "escrow",
      "outputs": [
        {
          "internalType": "address",
          "name": "",
          "type": "address"
        }
      ],
      "stateMutability": "view",
      "type": "function"
    },
    {
      "inputs": [
        {
          "internalType": "address",
          "name": "_escrow",
          "type": "address"
        }
      ],
      "name": "setEscrow",
      "outputs": [],
      "stateMutability": "nonpayable",
      "type": "function"
    },
    {
      "stateMutability": "payable",
      "type": "receive"
    }
  ],
  "bytecode": "0x608060405234801561001057600080fd5b5061063b806100206000396000f3fe6080604052600436106100435760003560e01c8063041a1c0b14610088578063c10c35461461009f578063e2fdcc17146100c8578063f811a2d3146100f357610083565b36610083576040517f08c379a000000000000000000000000000000000000000000000000000000000815260040161007a90610437565b60405180910390fd5b600080fd5b34801561009457600080fd5b5061009d6100fd565b005b3480156100ab57600080fd5b506100c660048036038101906100c191906104ba565b61021f565b005b3480156100d457600080fd5b506100dd610262565b6040516100ea91906104f6565b60405180910390f35b6100fb610286565b005b60008060008054906101000a900473ffffffffffffffffffffffffffffffffffffffff1673ffffffffffffffffffffffffffffffffffffffff166040516024016040516020818303038152906040527f12424e3f000000000000000000000000000000000000000000000000000000007bffffffffffffffffffffffffffffffffffffffffffffffffffffffff19166020820180517bffffffffffffffffffffffffffffffffffffffffffffffffffffffff83818316178352505050506040516101c79190610582565b6000604051808303816000865af19150503d8060008114610204576040519150601f19603f3d011682016040523d82523d6000602084013e610209565b606091505b50915091508161021b57805160208201fd5b5050565b806000806101000a81548173ffffffffffffffffffffffffffffffffffffffff021916908373ffffffffffffffffffffffffffffffffffffffff16021790555050565b60008054906101000a900473ffffffffffffffffffffffffffffffffffffffff1681565b60008060009054906101000a900473ffffffffffffffffffffffffffffffffffffffff1673ffffffffffffffffffffffffffffffffffffffff16346040516024016040516020818303038152906040527fda4c829f000000000000000000000000000000000000000000000000000000007bffffffffffffffffffffffffffffffffffffffffffffffffffffffff19166020820180517bffffffffffffffffffffffffffffffffffffffffffffffffffffffff83818316178352505050506040516103519190610582565b60006040518083038185875af1925050503d806000811461038e576040519150601f19603f3d011682016040523d82523d6000602084013e610393565b606091505b50509050806103d7576040517f08c379a00000000000000000000000000000000000000000000000000000000081526004016103ce906105e5565b60405180910390fd5b50565b600082825260208201905092915050565b7f427579657220726576657274656420696e74656e74696f6e616c6c7900000000600082015250565b6000610421601c836103da565b915061042c826103eb565b602082019050919050565b6000602082019050818103600083015261045081610414565b9050919050565b600080fd5b600073ffffffffffffffffffffffffffffffffffffffff82169050919050565b60006104878261045c565b9050919050565b6104978161047c565b81146104a257600080fd5b50565b6000813590506104b48161048e565b92915050565b6000602082840312156104d0576104cf610457565b5b60006104de848285016104a5565b91505092915050565b6104f08161047c565b82525050565b600060208201905061050b60008301846104e7565b92915050565b600081519050919050565b600081905092915050565b60005b8381101561054557808201518184015260208101905061052a565b60008484015250505050565b600061055c82610511565b610566818561051c565b9350610576818560208601610527565b80840191505092915050565b600061058e8284610551565b915081905092915050565b7f466f727761726465642062757965725f6465706f736974206661696c65640000600082015250565b60006105cf601e836103da565b91506105da82610599565b602082019050919050565b600060208201905081810360008301526105fe816105c2565b905091905056fea26469706673582212200c40213f04a0c8fa96dd9b295fac7981bc34b71f438bf11a2f5aef4045f8537b64736f6c63430008120033",
  "linkReferences": {},
  "deployedLinkReferences": {}
}