{
  "_format": "hh-sol-artifact-1",
  "contractName": "RevertingBuyer",
  "sourceName": "contracts/RevertingBuyer.sol",
  "abi": [
    {
      "inputs": [],
      "name": "approveAsBuyer",
      "outputs": [],
      "stateMutability": "nonpayable",
      "type": "function"
    },
    {
      "inputs": [],
      "name": "depositAsBuyer",
      "outputs": [],
      "stateMutability": "payable",
      "type": "function"
    },
    {
      "inputs": [],
      "name": "escrow",
      "outputs": [
        {
          "internalType": "address",
          "name": "",
          "type": "address"
        }
      ],
      "stateMutability": "view",
      "type": "function"
    },
    {
      "inputs": [
        {
          "internalType": "address",
          "name": "_escrow",
          "type": "address"
        }
      ],
      "name": "setEscrow",
      "outputs": [],
      "stateMutability": "nonpayable",
      "type": "function"
    },
    {
      "stateMutability": "payable",
      "type": "receive"
    }
  ],
  "bytecode": "0x608060405234801561001057600080fd5b50610639806100206000396000f3fe6080604052600436106100435760003560e01c8063041a1c0b14610088578063c10c35461461009f578063e2fdcc17146100c8578063f811a2d3146100f357610083565b36610083576040517f08c379a000000000000000000000000000000000000000000000000000000000815260040161007a90610435565b60405180910390fd5b600080fd5b34801561009457600080fd5b5061009d6100fd565b005b3480156100ab57600080fd5b506100c660048036038101906100c191906104b8565b61021d565b005b3480156100d457600080fd5b506100dd610260565b6040516100ea91906104f4565b60405180910390f35b6100fb610284565b005b60008060008054906101000a900473ffffffffffffffffffffffffffffffffffffffff1673ffffffffffffffffffffffffffffffffffffffff166040516024016040516020818303038152906040527f12424e3f000000000000000000000000000000000000000000000000000000007bffffffffffffffffffffffffffffffffffffffffffffffffffffffff19166020820180517bffffffffffffffffffffffffffffffffffffffffffffffffffffffff83818316178352505050506040516101c79190610580565b600060405180830381855af49150503d8060008114610202576040519150601f19603f3d011682016040523d82523d6000602084013e610207565b606091505b50915091508161021957805160208201fd5b5050565b806000806101000a81548173ffffffffffffffffffffffffffffffffffffffff021916908373ffffffffffffffffffffffffffffffffffffffff16021790555050565b60008054906101000a900473ffffffffffffffffffffffffffffffffffffffff1681565b60008060009054906101000a900473ffffffffffffffffffffffffffffffffffffffff1673ffffffffffffffffffffffffffffffffffffffff16346040516024016040516020818303038152906040527fda4c829f000000000000000000000000000000000000000000000000000000007bffffffffffffffffffffffffffffffffffffffffffffffffffffffff19166020820180517bffffffffffffffffffffffffffffffffffffffffffffffffffffffff838183161783525050505060405161034f9190610580565b60006040518083038185875af1925050503d806000811461038c576040519150601f19603f3d011682016040523d82523d6000602084013e610391565b606091505b50509050806103d5576040517f08c379a00000000000000000000000000000000000000000000000000000000081526004016103cc906105e3565b60405180910390fd5b50565b600082825260208201905092915050565b7f427579657220726576657274656420696e74656e74696f6e616c6c7900000000600082015250565b600061041f601c836103d8565b915061042a826103e9565b602082019050919050565b6000602082019050818103600083015261044e81610412565b9050919050565b600080fd5b600073ffffffffffffffffffffffffffffffffffffffff82169050919050565b60006104858261045a565b9050919050565b6104958161047a565b81146104a057600080fd5b50565b6000813590506104b28161048c565b92915050565b6000602082840312156104ce576104cd610455565b5b60006104dc848285016104a3565b91505092915050565b6104ee8161047a565b82525050565b600060208201905061050960008301846104e5565b92915050565b600081519050919050565b600081905092915050565b60005b83811015610543578082015181840152602081019050610528565b60008484015250505050565b600061055a8261050f565b610564818561051a565b9350610574818560208601610525565b80840191505092915050565b600061058c828461054f565b915081905092915050565b7f466f727761726465642062757965725f6465706f736974206661696c65640000600082015250565b60006105cd601e836103d8565b91506105d882610597565b602082019050919050565b600060208201905081810360008301526105fc816105c0565b905091905056fea26469706673582212205eca8f1b09735073ed1190a78ab9773775b7413110600c686da58143334d61cb64736f6c63430008120033",
  "linkReferences": {},
  "deployedLinkReferences": {}
}