{"contracts/DoubleDepositEscrow.sol":{"DoubleDepositEscrow":{"abi":[{"inputs":[{"internalType":"address payable","name":"_buyer","type":"address"},{"internalType":"address payable","name":"_seller","type":"address"},{"internalType":"uint256","name":"_paymentAmount","type":"uint256"},{"internalType":"uint256","name":"_depositAmount","type":"uint256"}],"stateMutability":"nonpayable","type":"constructor"},{"inputs":[],"name":"approve","outputs":[],"stateMutability":"nonpayable","type":"function"},{"inputs":[],"name":"buyer","outputs":[{"internalType":"address payable","name":"","type":"address"}],"stateMutability":"view","type":"function"},{"inputs":[],"name":"buyerDeposited","outputs":[{"internalType":"bool","name":"","type":"bool"}],"stateMutability":"view","type":"function"},{"inputs":[],"name":"buyer_deposit","outputs":[],"stateMutability":"payable","type":"function"},{"inputs":[],"name":"depositAmount","outputs":[{"internalType":"uint256","name":"","type":"uint256"}],"stateMutability":"view","type":"function"},{"inputs":[],"name":"isApproved","outputs":[{"internalType":"bool","name":"","type":"bool"}],"stateMutability":"view","type":"function"},{"inputs":[],"name":"paymentAmount","outputs":[{"internalType":"uint256","name":"","type":"uint256"}],"stateMutability":"view","type":"function"},{"inputs":[],"name":"seller","outputs":[{"internalType":"address payable","name":"","type":"address"}],"stateMutability":"view","type":"function"},{"inputs":[],"name":"sellerDeposited","outputs":[{"internalType":"bool","name":"","type":"bool"}],"stateMutability":"view","type":"function"},{"inputs":[],"name":"seller_deposit","outputs":[],"stateMutability":"payable","type":"function"}],"evm":{"bytecode":{"linkReferences":{},"object":"60806040523480156200001157600080fd5b50604051620019d9380380620019d983398181016040528101906200003791906200035e565b62000053677364c5374fe9993960c01b620002b660201b60201c565b6200006f67f2235b69f8c1b1af60c01b620002b660201b60201c565b6200008b672cbc182c9c6435fb60c01b620002b660201b60201c565b620000a767e0aee8bc181e93ca60c01b620002b660201b60201c565b818111620000ec576040517f08c379a0000000000000000000000000000000000000000000000000000000008152600401620000e39062000457565b60405180910390fd5b6200010867c4ccbb1e8accfa9a60c01b620002b660201b60201c565b6200012467afde2540bcc7ff3260c01b620002b660201b60201c565b836000806101000a81548173ffffffffffffffffffffffffffffffffffffffff021916908373ffffffffffffffffffffffffffffffffffffffff1602179055506200018067547ae007fe0f386a60c01b620002b660201b60201c565b82600160006101000a81548173ffffffffffffffffffffffffffffffffffffffff021916908373ffffffffffffffffffffffffffffffffffffffff160217905550620001dd675eee148ee18f996e60c01b620002b660201b60201c565b8160028190555062000200672506752099f3840860c01b620002b660201b60201c565b8060038190555062000223679e341714a706c02b60c01b620002b660201b60201c565b6000600460006101000a81548160ff0219169083151502179055506200025a67af04fd34ccab2ffe60c01b620002b660201b60201c565b6000600460016101000a81548160ff021916908315150217905550620002916785148d10729929e260c01b620002b660201b60201c565b6000600460026101000a81548160ff0219169083151502179055505050505062000479565b50565b600080fd5b600073ffffffffffffffffffffffffffffffffffffffff82169050919050565b6000620002eb82620002be565b9050919050565b620002fd81620002de565b81146200030957600080fd5b50565b6000815190506200031d81620002f2565b92915050565b6000819050919050565b620003388162000323565b81146200034457600080fd5b50565b60008151905062000358816200032d565b92915050565b600080600080608085870312156200037b576200037a620002b9565b5b60006200038b878288016200030c565b94505060206200039e878288016200030c565b9350506040620003b18782880162000347565b9250506060620003c48782880162000347565b91505092959194509250565b600082825260208201905092915050565b7f4465706f73697420616d6f756e74206d7573742062652067726561746572207460008201527f68616e207061796d656e7420616d6f756e740000000000000000000000000000602082015250565b60006200043f603283620003d0565b91506200044c82620003e1565b604082019050919050565b60006020820190508181036000830152620004728162000430565b9050919050565b61155080620004896000396000f3fe6080604052600436106100915760003560e01c80637150d8ae116100595780637150d8ae146101385780637c148952146101635780638f8b252e1461018e578063c35905c6146101b9578063da4c829f146101e457610091565b806308551a531461009657806312424e3f146100c15780631b5d3106146100d857806328f371aa146100e2578063419759f51461010d575b600080fd5b3480156100a257600080fd5b506100ab6101ee565b6040516100b89190610e59565b60405180910390f35b3480156100cd57600080fd5b506100d6610214565b005b6100e06108fc565b005b3480156100ee57600080fd5b506100f7610b55565b6040516101049190610e8f565b60405180910390f35b34801561011957600080fd5b50610122610b68565b60405161012f9190610ec3565b60405180910390f35b34801561014457600080fd5b5061014d610b6e565b60405161015a9190610e59565b60405180910390f35b34801561016f57600080fd5b50610178610b92565b6040516101859190610e8f565b60405180910390f35b34801561019a57600080fd5b506101a3610ba5565b6040516101b09190610e8f565b60405180910390f35b3480156101c557600080fd5b506101ce610bb8565b6040516101db9190610ec3565b60405180910390f35b6101ec610bbe565b005b600160009054906101000a900473ffffffffffffffffffffffffffffffffffffffff1681565b61022867a0dc55cfec02a51a60c01b610e15565b61023c67a1f1a645e735c92f60c01b610e15565b6102506786a9c663f8d0eab860c01b610e15565b61026467662b77ba311946a260c01b610e15565b60008054906101000a900473ffffffffffffffffffffffffffffffffffffffff1673ffffffffffffffffffffffffffffffffffffffff163373ffffffffffffffffffffffffffffffffffffffff16146102f2576040517f08c379a00000000000000000000000000000000000000000000000000000000081526004016102e990610f3b565b60405180910390fd5b610306673ad146cfdd6f01e060c01b610e15565b61031a67a3b8d8d4dcbcb52a60c01b610e15565b61032e67bb761dabf1e8dc0960c01b610e15565b610342677cda767f3e041f1460c01b610e15565b600460029054906101000a900460ff1615610392576040517f08c379a000000000000000000000000000000000000000000000000000000000815260040161038990610fcd565b60405180910390fd5b6103a66785c950b14cbe181b60c01b610e15565b6103ba67560db76bb817a43260c01b610e15565b6103ce67a3ae96e0d4c03fe560c01b610e15565b6103e26704ad7a9548c3891860c01b610e15565b600460009054906101000a900460ff16610431576040517f08c379a000000000000000000000000000000000000000000000000000000000815260040161042890611039565b60405180910390fd5b61044567e4a60b4b49fa572660c01b610e15565b6104596768be537fed6b0f3160c01b610e15565b61046d6734d039e0055a9d5660c01b610e15565b61048167ac1efc5e8f23d8b060c01b610e15565b600460019054906101000a900460ff166104d0576040517f08c379a00000000000000000000000000000000000000000000000000000000081526004016104c7906110a5565b60405180910390fd5b6104e4675789739c9bb7675760c01b610e15565b6104f8677f15fb26a2ee53cc60c01b610e15565b6001600460026101000a81548160ff02191690831515021790555061052767b79ca06c405bde6660c01b610e15565b61053b6780bd6ff7fff4efd360c01b610e15565b6000600160009054906101000a900473ffffffffffffffffffffffffffffffffffffffff1673ffffffffffffffffffffffffffffffffffffffff16600254604051610585906110f6565b60006040518083038185875af1925050503d80600081146105c2576040519150601f19603f3d011682016040523d82523d6000602084013e6105c7565b606091505b505090506105df67290f946b912c64ac60c01b610e15565b6105f367581644d6055d8df060c01b610e15565b61060767754d61104cd25cae60c01b610e15565b80610647576040517f08c379a000000000000000000000000000000000000000000000000000000000815260040161063e90611157565b60405180910390fd5b61065b67e1055491e24f021560c01b610e15565b61066f6731c0fb1629c3042560c01b610e15565b6106836713a208d723a9b67d60c01b610e15565b6000600160009054906101000a900473ffffffffffffffffffffffffffffffffffffffff1673ffffffffffffffffffffffffffffffffffffffff166003546040516106cd906110f6565b60006040518083038185875af1925050503d806000811461070a576040519150601f19603f3d011682016040523d82523d6000602084013e61070f565b606091505b50509050610727677c17bd6a0de58f4c60c01b610e15565b61073b6722334c29473d178160c01b610e15565b61074f6793f27f83c5eccdd660c01b610e15565b8061078f576040517f08c379a0000000000000000000000000000000000000000000000000000000008152600401610786906111c3565b60405180910390fd5b6107a36718c02e4b2775191060c01b610e15565b6107b767c2024d9cd5f7122860c01b610e15565b6107cb673f9e3aa1c5e6dabf60c01b610e15565b60008060009054906101000a900473ffffffffffffffffffffffffffffffffffffffff1673ffffffffffffffffffffffffffffffffffffffff166002546003546108159190611212565b604051610821906110f6565b60006040518083038185875af1925050503d806000811461085e576040519150601f19603f3d011682016040523d82523d6000602084013e610863565b606091505b5050905061087b67fe0f773dceb5472460c01b610e15565b61088f67399c0f18621cbba660c01b610e15565b6108a367cf8e9cff4483e87760c01b610e15565b806108e3576040517f08c379a00000000000000000000000000000000000000000000000000000000081526004016108da906112b8565b60405180910390fd5b6108f7673c27ad43d4c54c8060c01b610e15565b505050565b61091067fef94f6c67786c8060c01b610e15565b61092467e2eeefc2ff52dc5d60c01b610e15565b610938679eb092e4dda84ad560c01b610e15565b61094c67513e8409b8362bc660c01b610e15565b600160009054906101000a900473ffffffffffffffffffffffffffffffffffffffff1673ffffffffffffffffffffffffffffffffffffffff163373ffffffffffffffffffffffffffffffffffffffff16146109dc576040517f08c379a00000000000000000000000000000000000000000000000000000000081526004016109d390611324565b60405180910390fd5b6109f0673c9e16be688939ec60c01b610e15565b610a0467bad4b322ae29991160c01b610e15565b610a186702263132e811cf0560c01b610e15565b610a2c67031181e95686cf8b60c01b610e15565b600460019054906101000a900460ff1615610a7c576040517f08c379a0000000000000000000000000000000000000000000000000000000008152600401610a7390611390565b60405180910390fd5b610a9067ab9f711d7a8c299760c01b610e15565b610aa467de5d6100257f3b4360c01b610e15565b610ab867ecb71a8df85291e660c01b610e15565b610acc671aad141c3c83b2ea60c01b610e15565b6003543414610b10576040517f08c379a0000000000000000000000000000000000000000000000000000000008152600401610b0790611422565b60405180910390fd5b610b246703fba4523e7ef36560c01b610e15565b610b38675896920269348d5060c01b610e15565b6001600460016101000a81548160ff021916908315150217905550565b600460029054906101000a900460ff1681565b60035481565b60008054906101000a900473ffffffffffffffffffffffffffffffffffffffff1681565b600460009054906101000a900460ff1681565b600460019054906101000a900460ff1681565b60025481565b610bd26756d1171b8b692fb860c01b610e15565b610be667cf0c2bdad30c959660c01b610e15565b610bfa670ea30dce5f26ae9b60c01b610e15565b610c0e67cecaf3ca71b07a5960c01b610e15565b60008054906101000a900473ffffffffffffffffffffffffffffffffffffffff1673ffffffffffffffffffffffffffffffffffffffff163373ffffffffffffffffffffffffffffffffffffffff1614610c9c576040517f08c379a0000000000000000000000000000000000000000000000000000000008152600401610c939061148e565b60405180910390fd5b610cb06762058f8a0aed352e60c01b610e15565b610cc4674f74176b081ab7fd60c01b610e15565b610cd867b9ed15797217eb2660c01b610e15565b610cec67715bb43d18c2c89460c01b610e15565b600460009054906101000a900460ff1615610d3c576040517f08c379a0000000000000000000000000000000000000000000000000000000008152600401610d33906114fa565b60405180910390fd5b610d50677fc023f9d59f307560c01b610e15565b610d64674eae47939e0c474760c01b610e15565b610d78675f719ef4d2e9f7c360c01b610e15565b610d8c67d3c80d03aaa5b93460c01b610e15565b6003543414610dd0576040517f08c379a0000000000000000000000000000000000000000000000000000000008152600401610dc790611422565b60405180910390fd5b610de4670ad6e47ead614ef060c01b610e15565b610df867a663e35e51c92d5460c01b610e15565b6001600460006101000a81548160ff021916908315150217905550565b50565b600073ffffffffffffffffffffffffffffffffffffffff82169050919050565b6000610e4382610e18565b9050919050565b610e5381610e38565b82525050565b6000602082019050610e6e6000830184610e4a565b92915050565b60008115159050919050565b610e8981610e74565b82525050565b6000602082019050610ea46000830184610e80565b92915050565b6000819050919050565b610ebd81610eaa565b82525050565b6000602082019050610ed86000830184610eb4565b92915050565b600082825260208201905092915050565b7f4f6e6c792062757965722063616e20617070726f76652e000000000000000000600082015250565b6000610f25601783610ede565b9150610f3082610eef565b602082019050919050565b60006020820190508181036000830152610f5481610f18565b9050919050565b7f5472616e73616374696f6e2068617320616c7265616479206265656e2061707060008201527f726f7665642e0000000000000000000000000000000000000000000000000000602082015250565b6000610fb7602683610ede565b9150610fc282610f5b565b604082019050919050565b60006020820190508181036000830152610fe681610faa565b9050919050565b7f427579657220686173206e6f7420796574206465706f73697465640000000000600082015250565b6000611023601b83610ede565b915061102e82610fed565b602082019050919050565b6000602082019050818103600083015261105281611016565b9050919050565b7f53656c6c657220686173206e6f7420796574206465706f736974656400000000600082015250565b600061108f601c83610ede565b915061109a82611059565b602082019050919050565b600060208201905081810360008301526110be81611082565b9050919050565b600081905092915050565b50565b60006110e06000836110c5565b91506110eb826110d0565b600082019050919050565b6000611101826110d3565b9150819050919050565b7f5061796d656e7420746f2073656c6c6572206661696c65642e00000000000000600082015250565b6000611141601983610ede565b915061114c8261110b565b602082019050919050565b6000602082019050818103600083015261117081611134565b9050919050565b7f4465706f73697420726566756e6420746f2073656c6c6572206661696c65642e600082015250565b60006111ad602083610ede565b91506111b882611177565b602082019050919050565b600060208201905081810360008301526111dc816111a0565b9050919050565b7f4e487b7100000000000000000000000000000000000000000000000000000000600052601160045260246000fd5b600061121d82610eaa565b915061122883610eaa565b92508282039050818111156112405761123f6111e3565b5b92915050565b7f526573696475616c206465706f73697420726566756e6420746f20627579657260008201527f206661696c65642e000000000000000000000000000000000000000000000000602082015250565b60006112a2602883610ede565b91506112ad82611246565b604082019050919050565b600060208201905081810360008301526112d181611295565b9050919050565b7f4f6e6c792073656c6c65722063616e206465706f7369742e0000000000000000600082015250565b600061130e601883610ede565b9150611319826112d8565b602082019050919050565b6000602082019050818103600083015261133d81611301565b9050919050565b7f53656c6c65722068617320616c7265616479206465706f73697465642e000000600082015250565b600061137a601d83610ede565b915061138582611344565b602082019050919050565b600060208201905081810360008301526113a98161136d565b9050919050565b7f4465706f73697420616d6f756e742073686f756c6420626520657175616c207460008201527f6f20746865206465706f73697420616d6f756e74207370656369666965642e00602082015250565b600061140c603f83610ede565b9150611417826113b0565b604082019050919050565b6000602082019050818103600083015261143b816113ff565b9050919050565b7f4f6e6c792062757965722063616e206465706f7369742e000000000000000000600082015250565b6000611478601783610ede565b915061148382611442565b602082019050919050565b600060208201905081810360008301526114a78161146b565b9050919050565b7f42757965722068617320616c7265616479206465706f73697465642e00000000600082015250565b60006114e4601c83610ede565b91506114ef826114ae565b602082019050919050565b60006020820190508181036000830152611513816114d7565b905091905056fea2646970667358221220369eaca40c199a37ca7ea9605832c2ee9e82999345c12b7b368af150d6d7874964736f6c63430008120033","opcodes":"PUSH1 0x80 PUSH1 0x40 MSTORE CALLVALUE DUP1 ISZERO PUSH3 0x11 JUMPI PUSH1 0x0 DUP1 REVERT JUMPDEST POP PUSH1 0x40 MLOAD PUSH3 0x19D9 CODESIZE SUB DUP1 PUSH3 0x19D9 DUP4 CODECOPY DUP2 DUP2 ADD PUSH1 0x40 MSTORE DUP2 ADD SWAP1 PUSH3 0x37 SWAP2 SWAP1 PUSH3 0x35E JUMP JUMPDEST PUSH3 0x53 PUSH8 0x7364C5374FE99939 PUSH1 0xC0 SHL PUSH3 0x2B6 PUSH1 0x20 SHL PUSH1 0x20 SHR JUMP JUMPDEST PUSH3 0x6F PUSH8 0xF2235B69F8C1B1AF PUSH1 0xC0 SHL PUSH3 0x2B6 PUSH1 0x20 SHL PUSH1 0x20 SHR JUMP JUMPDEST PUSH3 0x8B PUSH8 0x2CBC182C9C6435FB PUSH1 0xC0 SHL PUSH3 0x2B6 PUSH1 0x20 SHL PUSH1 0x20 SHR JUMP JUMPDEST PUSH3 0xA7 PUSH8 0xE0AEE8BC181E93CA PUSH1 0xC0 SHL PUSH3 0x2B6 PUSH1 0x20 SHL PUSH1 0x20 SHR JUMP JUMPDEST DUP2 DUP2 GT PUSH3 0xEC JUMPI PUSH1 0x40 MLOAD PUSH32 0x8C379A000000000000000000000000000000000000000000000000000000000 DUP2 MSTORE PUSH1 0x4 ADD PUSH3 0xE3 SWAP1 PUSH3 0x457 JUMP JUMPDEST PUSH1 0x40 MLOAD DUP1 SWAP2 SUB SWAP1 REVERT JUMPDEST PUSH3 0x108 PUSH8 0xC4CCBB1E8ACCFA9A PUSH1 0xC0 SHL PUSH3 0x2B6 PUSH1 0x20 SHL PUSH1 0x20 SHR JUMP JUMPDEST PUSH3 0x124 PUSH8 0xAFDE2540BCC7FF32 PUSH1 0xC0 SHL PUSH3 0x2B6 PUSH1 0x20 SHL PUSH1 0x20 SHR JUMP JUMPDEST DUP4 PUSH1 0x0 DUP1 PUSH2 0x100 EXP DUP2 SLOAD DUP2 PUSH20 0xFFFFFFFFFFFFFFFFFFFFFFFFFFFFFFFFFFFFFFFF MUL NOT AND SWAP1 DUP4 PUSH20 0xFFFFFFFFFFFFFFFFFFFFFFFFFFFFFFFFFFFFFFFF AND MUL OR SWAP1 SSTORE POP PUSH3 0x180 PUSH8 0x547AE007FE0F386A PUSH1 0xC0 SHL PUSH3 0x2B6 PUSH1 0x20 SHL PUSH1 0x20 SHR JUMP JUMPDEST DUP3 PUSH1 0x1 PUSH1 0x0 PUSH2 0x100 EXP DUP2 SLOAD DUP2 PUSH20 0xFFFFFFFFFFFFFFFFFFFFFFFFFFFFFFFFFFFFFFFF MUL NOT AND SWAP1 DUP4 PUSH20 0xFFFFFFFFFFFFFFFFFFFFFFFFFFFFFFFFFFFFFFFF AND MUL OR SWAP1 SSTORE POP PUSH3 0x1DD PUSH8 0x5EEE148EE18F996E PUSH1 0xC0 SHL PUSH3 0x2B6 PUSH1 0x20 SHL PUSH1 0x20 SHR JUMP JUMPDEST DUP2 PUSH1 0x2 DUP2 SWAP1 SSTORE POP PUSH3 0x200 PUSH8 0x2506752099F38408 PUSH1 0xC0 SHL PUSH3 0x2B6 PUSH1 0x20 SHL PUSH1 0x20 SHR JUMP JUMPDEST DUP1 PUSH1 0x3 DUP2 SWAP1 SSTORE POP PUSH3 0x223 PUSH8 0x9E341714A706C02B PUSH1 0xC0 SHL PUSH3 0x2B6 PUSH1 0x20 SHL PUSH1 0x20 SHR JUMP JUMPDEST PUSH1 0x0 PUSH1 0x4 PUSH1 0x0 PUSH2 0x100 EXP DUP2 SLOAD DUP2 PUSH1 0xFF MUL NOT AND SWAP1 DUP4 ISZERO ISZERO MUL OR SWAP1 SSTORE POP PUSH3 0x25A PUSH8 0xAF04FD34CCAB2FFE PUSH1 0xC0 SHL PUSH3 0x2B6 PUSH1 0x20 SHL PUSH1 0x20 SHR JUMP JUMPDEST PUSH1 0x0 PUSH1 0x4 PUSH1 0x1 PUSH2 0x100 EXP DUP2 SLOAD DUP2 PUSH1 0xFF MUL NOT AND SWAP1 DUP4 ISZERO ISZERO MUL OR SWAP1 SSTORE POP PUSH3 0x291 PUSH8 0x85148D10729929E2 PUSH1 0xC0 SHL PUSH3 0x2B6 PUSH1 0x20 SHL PUSH1 0x20 SHR JUMP JUMPDEST PUSH1 0x0 PUSH1 0x4 PUSH1 0x2 PUSH2 0x100 EXP DUP2 SLOAD DUP2 PUSH1 0xFF MUL NOT AND SWAP1 DUP4 ISZERO ISZERO MUL OR SWAP1 SSTORE POP POP POP POP POP PUSH3 0x479 JUMP JUMPDEST POP JUMP JUMPDEST PUSH1 0x0 DUP1 REVERT JUMPDEST PUSH1 0x0 PUSH20 0xFFFFFFFFFFFFFFFFFFFFFFFFFFFFFFFFFFFFFFFF DUP3 AND SWAP1 POP SWAP2 SWAP1 POP JUMP JUMPDEST PUSH1 0x0 PUSH3 0x2EB DUP3 PUSH3 0x2BE JUMP JUMPDEST SWAP1 POP SWAP2 SWAP1 POP JUMP JUMPDEST PUSH3 0x2FD DUP2 PUSH3 0x2DE JUMP JUMPDEST DUP2 EQ PUSH3 0x309 JUMPI PUSH1 0x0 DUP1 REVERT JUMPDEST POP JUMP JUMPDEST PUSH1 0x0 DUP2 MLOAD SWAP1 POP PUSH3 0x31D DUP2 PUSH3 0x2F2 JUMP JUMPDEST SWAP3 SWAP2 POP POP JUMP JUMPDEST PUSH1 0x0 DUP2 SWAP1 POP SWAP2 SWAP1 POP JUMP JUMPDEST PUSH3 0x338 DUP2 PUSH3 0x323 JUMP JUMPDEST DUP2 EQ PUSH3 0x344 JUMPI PUSH1 0x0 DUP1 REVERT JUMPDEST POP JUMP JUMPDEST PUSH1 0x0 DUP2 MLOAD SWAP1 POP PUSH3 0x358 DUP2 PUSH3 0x32D JUMP JUMPDEST SWAP3 SWAP2 POP POP JUMP JUMPDEST PUSH1 0x0 DUP1 PUSH1 0x0 DUP1 PUSH1 0x80 DUP6 DUP8 SUB SLT ISZERO PUSH3 0x37B JUMPI PUSH3 0x37A PUSH3 0x2B9 JUMP JUMPDEST JUMPDEST PUSH1 0x0 PUSH3 0x38B DUP8 DUP3 DUP9 ADD PUSH3 0x30C JUMP JUMPDEST SWAP5 POP POP PUSH1 0x20 PUSH3 0x39E DUP8 DUP3 DUP9 ADD PUSH3 0x30C JUMP JUMPDEST SWAP4 POP POP PUSH1 0x40 PUSH3 0x3B1 DUP8 DUP3 DUP9 ADD PUSH3 0x347 JUMP JUMPDEST SWAP3 POP POP PUSH1 0x60 PUSH3 0x3C4 DUP8 DUP3 DUP9 ADD PUSH3 0x347 JUMP JUMPDEST SWAP2 POP POP SWAP3 SWAP6 SWAP2 SWAP5 POP SWAP3 POP JUMP JUMPDEST PUSH1 0x0 DUP3 DUP3 MSTORE PUSH1 0x20 DUP3 ADD SWAP1 POP SWAP3 SWAP2 POP POP JUMP JUMPDEST PUSH32 0x4465706F73697420616D6F756E74206D75737420626520677265617465722074 PUSH1 0x0 DUP3 ADD MSTORE PUSH32 0x68616E207061796D656E7420616D6F756E740000000000000000000000000000 PUSH1 0x20 DUP3 ADD MSTORE POP JUMP JUMPDEST PUSH1 0x0 PUSH3 0x43F PUSH1 0x32 DUP4 PUSH3 0x3D0 JUMP JUMPDEST SWAP2 POP PUSH3 0x44C DUP3 PUSH3 0x3E1 JUMP JUMPDEST PUSH1 0x40 DUP3 ADD SWAP1 POP SWAP2 SWAP1 POP JUMP JUMPDEST PUSH1 0x0 PUSH1 0x20 DUP3 ADD SWAP1 POP DUP2 DUP2 SUB PUSH1 0x0 DUP4 ADD MSTORE PUSH3 0x472 DUP2 PUSH3 0x430 JUMP JUMPDEST SWAP1 POP SWAP2 SWAP1 POP JUMP JUMPDEST PUSH2 0x1550 DUP1 PUSH3 0x489 PUSH1 0x0 CODECOPY PUSH1 0x0 RETURN INVALID PUSH1 0x80 PUSH1 0x40 MSTORE PUSH1 0x4 CALLDATASIZE LT PUSH2 0x91 JUMPI PUSH1 0x0 CALLDATALOAD PUSH1 0xE0 SHR DUP1 PUSH4 0x7150D8AE GT PUSH2 0x59 JUMPI DUP1 PUSH4 0x7150D8AE EQ PUSH2 0x138 JUMPI DUP1 PUSH4 0x7C148952 EQ PUSH2 0x163 JUMPI DUP1 PUSH4 0x8F8B252E EQ PUSH2 0x18E JUMPI DUP1 PUSH4 0xC35905C6 EQ PUSH2 0x1B9 JUMPI DUP1 PUSH4 0xDA4C829F EQ PUSH2 0x1E4 JUMPI PUSH2 0x91 JUMP JUMPDEST DUP1 PUSH4 0x8551A53 EQ PUSH2 0x96 JUMPI DUP1 PUSH4 0x12424E3F EQ PUSH2 0xC1 JUMPI DUP1 PUSH4 0x1B5D3106 EQ PUSH2 0xD8 JUMPI DUP1 PUSH4 0x28F371AA EQ PUSH2 0xE2 JUMPI DUP1 PUSH4 0x419759F5 EQ PUSH2 0x10D JUMPI JUMPDEST PUSH1 0x0 DUP1 REVERT JUMPDEST CALLVALUE DUP1 ISZERO PUSH2 0xA2 JUMPI PUSH1 0x0 DUP1 REVERT JUMPDEST POP PUSH2 0xAB PUSH2 0x1EE JUMP JUMPDEST PUSH1 0x40 MLOAD PUSH2 0xB8 SWAP2 SWAP1 PUSH2 0xE59 JUMP JUMPDEST PUSH1 0x40 MLOAD DUP1 SWAP2 SUB SWAP1 RETURN JUMPDEST CALLVALUE DUP1 ISZERO PUSH2 0xCD JUMPI PUSH1 0x0 DUP1 REVERT JUMPDEST POP PUSH2 0xD6 PUSH2 0x214 JUMP JUMPDEST STOP JUMPDEST PUSH2 0xE0 PUSH2 0x8FC JUMP JUMPDEST STOP JUMPDEST CALLVALUE DUP1 ISZERO PUSH2 0xEE JUMPI PUSH1 0x0 DUP1 REVERT JUMPDEST POP PUSH2 0xF7 PUSH2 0xB55 JUMP JUMPDEST PUSH1 0x40 MLOAD PUSH2 0x104 SWAP2 SWAP1 PUSH2 0xE8F JUMP JUMPDEST PUSH1 0x40 MLOAD DUP1 SWAP2 SUB SWAP1 RETURN JUMPDEST CALLVALUE DUP1 ISZERO PUSH2 0x119 JUMPI PUSH1 0x0 DUP1 REVERT JUMPDEST POP PUSH2 0x122 PUSH2 0xB68 JUMP JUMPDEST PUSH1 0x40 MLOAD PUSH2 0x12F SWAP2 SWAP1 PUSH2 0xEC3 JUMP JUMPDEST PUSH1 0x40 MLOAD DUP1 SWAP2 SUB SWAP1 RETURN JUMPDEST CALLVALUE DUP1 ISZERO PUSH2 0x144 JUMPI PUSH1 0x0 DUP1 REVERT JUMPDEST POP PUSH2 0x14D PUSH2 0xB6E JUMP JUMPDEST PUSH1 0x40 MLOAD PUSH2 0x15A SWAP2 SWAP1 PUSH2 0xE59 JUMP JUMPDEST PUSH1 0x40 MLOAD DUP1 SWAP2 SUB SWAP1 RETURN JUMPDEST CALLVALUE DUP1 ISZERO PUSH2 0x16F JUMPI PUSH1 0x0 DUP1 REVERT JUMPDEST POP PUSH2 0x178 PUSH2 0xB92 JUMP JUMPDEST PUSH1 0x40 MLOAD PUSH2 0x185 SWAP2 SWAP1 PUSH2 0xE8F JUMP JUMPDEST PUSH1 0x40 MLOAD DUP1 SWAP2 SUB SWAP1 RETURN JUMPDEST CALLVALUE DUP1 ISZERO PUSH2 0x19A JUMPI PUSH1 0x0 DUP1 REVERT JUMPDEST POP PUSH2 0x1A3 PUSH2 0xBA5 JUMP JUMPDEST PUSH1 0x40 MLOAD PUSH2 0x1B0 SWAP2 SWAP1 PUSH2 0xE8F JUMP JUMPDEST PUSH1 0x40 MLOAD DUP1 SWAP2 SUB SWAP1 RETURN JUMPDEST CALLVALUE DUP1 ISZERO PUSH2 0x1C5 JUMPI PUSH1 0x0 DUP1 REVERT JUMPDEST POP PUSH2 0x1CE PUSH2 0xBB8 JUMP JUMPDEST PUSH1 0x40 MLOAD PUSH2 0x1DB SWAP2 SWAP1 PUSH2 0xEC3 JUMP JUMPDEST PUSH1 0x40 MLOAD DUP1 SWAP2 SUB SWAP1 RETURN JUMPDEST PUSH2 0x1EC PUSH2 0xBBE JUMP JUMPDEST STOP JUMPDEST PUSH1 0x1 PUSH1 0x0 SWAP1 SLOAD SWAP1 PUSH2 0x100 EXP SWAP1 DIV PUSH20 0xFFFFFFFFFFFFFFFFFFFFFFFFFFFFFFFFFFFFFFFF AND DUP2 JUMP JUMPDEST PUSH2 0x228 PUSH8 0xA0DC55CFEC02A51A PUSH1 0xC0 SHL PUSH2 0xE15 JUMP JUMPDEST PUSH2 0x23C PUSH8 0xA1F1A645E735C92F PUSH1 0xC0 SHL PUSH2 0xE15 JUMP JUMPDEST PUSH2 0x250 PUSH8 0x86A9C663F8D0EAB8 PUSH1 0xC0 SHL PUSH2 0xE15 JUMP JUMPDEST PUSH2 0x264 PUSH8 0x662B77BA311946A2 PUSH1 0xC0 SHL PUSH2 0xE15 JUMP JUMPDEST PUSH1 0x0 DUP1 SLOAD SWAP1 PUSH2 0x100 EXP SWAP1 DIV PUSH20 0xFFFFFFFFFFFFFFFFFFFFFFFFFFFFFFFFFFFFFFFF AND PUSH20 0xFFFFFFFFFFFFFFFFFFFFFFFFFFFFFFFFFFFFFFFF AND CALLER PUSH20 0xFFFFFFFFFFFFFFFFFFFFFFFFFFFFFFFFFFFFFFFF AND EQ PUSH2 0x2F2 JUMPI PUSH1 0x40 MLOAD PUSH32 0x8C379A000000000000000000000000000000000000000000000000000000000 DUP2 MSTORE PUSH1 0x4 ADD PUSH2 0x2E9 SWAP1 PUSH2 0xF3B JUMP JUMPDEST PUSH1 0x40 MLOAD DUP1 SWAP2 SUB SWAP1 REVERT JUMPDEST PUSH2 0x306 PUSH8 0x3AD146CFDD6F01E0 PUSH1 0xC0 SHL PUSH2 0xE15 JUMP JUMPDEST PUSH2 0x31A PUSH8 0xA3B8D8D4DCBCB52A PUSH1 0xC0 SHL PUSH2 0xE15 JUMP JUMPDEST PUSH2 0x32E PUSH8 0xBB761DABF1E8DC09 PUSH1 0xC0 SHL PUSH2 0xE15 JUMP JUMPDEST PUSH2 0x342 PUSH8 0x7CDA767F3E041F14 PUSH1 0xC0 SHL PUSH2 0xE15 JUMP JUMPDEST PUSH1 0x4 PUSH1 0x2 SWAP1 SLOAD SWAP1 PUSH2 0x100 EXP SWAP1 DIV PUSH1 0xFF AND ISZERO PUSH2 0x392 JUMPI PUSH1 0x40 MLOAD PUSH32 0x8C379A000000000000000000000000000000000000000000000000000000000 DUP2 MSTORE PUSH1 0x4 ADD PUSH2 0x389 SWAP1 PUSH2 0xFCD JUMP JUMPDEST PUSH1 0x40 MLOAD DUP1 SWAP2 SUB SWAP1 REVERT JUMPDEST PUSH2 0x3A6 PUSH8 0x85C950B14CBE181B PUSH1 0xC0 SHL PUSH2 0xE15 JUMP JUMPDEST PUSH2 0x3BA PUSH8 0x560DB76BB817A432 PUSH1 0xC0 SHL PUSH2 0xE15 JUMP JUMPDEST PUSH2 0x3CE PUSH8 0xA3AE96E0D4C03FE5 PUSH1 0xC0 SHL PUSH2 0xE15 JUMP JUMPDEST PUSH2 0x3E2 PUSH8 0x4AD7A9548C38918 PUSH1 0xC0 SHL PUSH2 0xE15 JUMP JUMPDEST PUSH1 0x4 PUSH1 0x0 SWAP1 SLOAD SWAP1 PUSH2 0x100 EXP SWAP1 DIV PUSH1 0xFF AND PUSH2 0x431 JUMPI PUSH1 0x40 MLOAD PUSH32 0x8C379A000000000000000000000000000000000000000000000000000000000 DUP2 MSTORE PUSH1 0x4 ADD PUSH2 0x428 SWAP1 PUSH2 0x1039 JUMP JUMPDEST PUSH1 0x40 MLOAD DUP1 SWAP2 SUB SWAP1 REVERT JUMPDEST PUSH2 0x445 PUSH8 0xE4A60B4B49FA5726 PUSH1 0xC0 SHL PUSH2 0xE15 JUMP JUMPDEST PUSH2 0x459 PUSH8 0x68BE537FED6B0F31 PUSH1 0xC0 SHL PUSH2 0xE15 JUMP JUMPDEST PUSH2 0x46D PUSH8 0x34D039E0055A9D56 PUSH1 0xC0 SHL PUSH2 0xE15 JUMP JUMPDEST PUSH2 0x481 PUSH8 0xAC1EFC5E8F23D8B0 PUSH1 0xC0 SHL PUSH2 0xE15 JUMP JUMPDEST PUSH1 0x4 PUSH1 0x1 SWAP1 SLOAD SWAP1 PUSH2 0x100 EXP SWAP1 DIV PUSH1 0xFF AND PUSH2 0x4D0 JUMPI PUSH1 0x40 MLOAD PUSH32 0x8C379A000000000000000000000000000000000000000000000000000000000 DUP2 MSTORE PUSH1 0x4 ADD PUSH2 0x4C7 SWAP1 PUSH2 0x10A5 JUMP JUMPDEST PUSH1 0x40 MLOAD DUP1 SWAP2 SUB SWAP1 REVERT JUMPDEST PUSH2 0x4E4 PUSH8 0x5789739C9BB76757 PUSH1 0xC0 SHL PUSH2 0xE15 JUMP JUMPDEST PUSH2 0x4F8 PUSH8 0x7F15FB26A2EE53CC PUSH1 0xC0 SHL PUSH2 0xE15 JUMP JUMPDEST PUSH1 0x1 PUSH1 0x4 PUSH1 0x2 PUSH2 0x100 EXP DUP2 SLOAD DUP2 PUSH1 0xFF MUL NOT AND SWAP1 DUP4 ISZERO ISZERO MUL OR SWAP1 SSTORE POP PUSH2 0x527 PUSH8 0xB79CA06C405BDE66 PUSH1 0xC0 SHL PUSH2 0xE15 JUMP JUMPDEST PUSH2 0x53B PUSH8 0x80BD6FF7FFF4EFD3 PUSH1 0xC0 SHL PUSH2 0xE15 JUMP JUMPDEST PUSH1 0x0 PUSH1 0x1 PUSH1 0x0 SWAP1 SLOAD SWAP1 PUSH2 0x100 EXP SWAP1 DIV PUSH20 0xFFFFFFFFFFFFFFFFFFFFFFFFFFFFFFFFFFFFFFFF AND PUSH20 0xFFFFFFFFFFFFFFFFFFFFFFFFFFFFFFFFFFFFFFFF AND PUSH1 0x2 SLOAD PUSH1 0x40 MLOAD PUSH2 0x585 SWAP1 PUSH2 0x10F6 JUMP JUMPDEST PUSH1 0x0 PUSH1 0x40 MLOAD DUP1 DUP4 SUB DUP2 DUP6 DUP8 GAS CALL SWAP3 POP POP POP RETURNDATASIZE DUP1 PUSH1 0x0 DUP2 EQ PUSH2 0x5C2 JUMPI PUSH1 0x40 MLOAD SWAP2 POP PUSH1 0x1F NOT PUSH1 0x3F RETURNDATASIZE ADD AND DUP3 ADD PUSH1 0x40 MSTORE RETURNDATASIZE DUP3 MSTORE RETURNDATASIZE PUSH1 0x0 PUSH1 0x20 DUP5 ADD RETURNDATACOPY PUSH2 0x5C7 JUMP JUMPDEST PUSH1 0x60 SWAP2 POP JUMPDEST POP POP SWAP1 POP PUSH2 0x5DF PUSH8 0x290F946B912C64AC PUSH1 0xC0 SHL PUSH2 0xE15 JUMP JUMPDEST PUSH2 0x5F3 PUSH8 0x581644D6055D8DF0 PUSH1 0xC0 SHL PUSH2 0xE15 JUMP JUMPDEST PUSH2 0x607 PUSH8 0x754D61104CD25CAE PUSH1 0xC0 SHL PUSH2 0xE15 JUMP JUMPDEST DUP1 PUSH2 0x647 JUMPI PUSH1 0x40 MLOAD PUSH32 0x8C379A000000000000000000000000000000000000000000000000000000000 DUP2 MSTORE PUSH1 0x4 ADD PUSH2 0x63E SWAP1 PUSH2 0x1157 JUMP JUMPDEST PUSH1 0x40 MLOAD DUP1 SWAP2 SUB SWAP1 REVERT JUMPDEST PUSH2 0x65B PUSH8 0xE1055491E24F0215 PUSH1 0xC0 SHL PUSH2 0xE15 JUMP JUMPDEST PUSH2 0x66F PUSH8 0x31C0FB1629C30425 PUSH1 0xC0 SHL PUSH2 0xE15 JUMP JUMPDEST PUSH2 0x683 PUSH8 0x13A208D723A9B67D PUSH1 0xC0 SHL PUSH2 0xE15 JUMP JUMPDEST PUSH1 0x0 PUSH1 0x1 PUSH1 0x0 SWAP1 SLOAD SWAP1 PUSH2 0x100 EXP SWAP1 DIV PUSH20 0xFFFFFFFFFFFFFFFFFFFFFFFFFFFFFFFFFFFFFFFF AND PUSH20 0xFFFFFFFFFFFFFFFFFFFFFFFFFFFFFFFFFFFFFFFF AND PUSH1 0x3 SLOAD PUSH1 0x40 MLOAD PUSH2 0x6CD SWAP1 PUSH2 0x10F6 JUMP JUMPDEST PUSH1 0x0 PUSH1 0x40 MLOAD DUP1 DUP4 SUB DUP2 DUP6 DUP8 GAS CALL SWAP3 POP POP POP RETURNDATASIZE DUP1 PUSH1 0x0 DUP2 EQ PUSH2 0x70A JUMPI PUSH1 0x40 MLOAD SWAP2 POP PUSH1 0x1F NOT PUSH1 0x3F RETURNDATASIZE ADD AND DUP3 ADD PUSH1 0x40 MSTORE RETURNDATASIZE DUP3 MSTORE RETURNDATASIZE PUSH1 0x0 PUSH1 0x20 DUP5 ADD RETURNDATACOPY PUSH2 0x70F JUMP JUMPDEST PUSH1 0x60 SWAP2 POP JUMPDEST POP POP SWAP1 POP PUSH2 0x727 PUSH8 0x7C17BD6A0DE58F4C PUSH1 0xC0 SHL PUSH2 0xE15 JUMP JUMPDEST PUSH2 0x73B PUSH8 0x22334C29473D1781 PUSH1 0xC0 SHL PUSH2 0xE15 JUMP JUMPDEST PUSH2 0x74F PUSH8 0x93F27F83C5ECCDD6 PUSH1 0xC0 SHL PUSH2 0xE15 JUMP JUMPDEST DUP1 PUSH2 0x78F JUMPI PUSH1 0x40 MLOAD PUSH32 0x8C379A000000000000000000000000000000000000000000000000000000000 DUP2 MSTORE PUSH1 0x4 ADD PUSH2 0x786 SWAP1 PUSH2 0x11C3 JUMP JUMPDEST PUSH1 0x40 MLOAD DUP1 SWAP2 SUB SWAP1 REVERT JUMPDEST PUSH2 0x7A3 PUSH8 0x18C02E4B27751910 PUSH1 0xC0 SHL PUSH2 0xE15 JUMP JUMPDEST PUSH2 0x7B7 PUSH8 0xC2024D9CD5F71228 PUSH1 0xC0 SHL PUSH2 0xE15 JUMP JUMPDEST PUSH2 0x7CB PUSH8 0x3F9E3AA1C5E6DABF PUSH1 0xC0 SHL PUSH2 0xE15 JUMP JUMPDEST PUSH1 0x0 DUP1 PUSH1 0x0 SWAP1 SLOAD SWAP1 PUSH2 0x100 EXP SWAP1 DIV PUSH20 0xFFFFFFFFFFFFFFFFFFFFFFFFFFFFFFFFFFFFFFFF AND PUSH20 0xFFFFFFFFFFFFFFFFFFFFFFFFFFFFFFFFFFFFFFFF AND PUSH1 0x2 SLOAD PUSH1 0x3 SLOAD PUSH2 0x815 SWAP2 SWAP1 PUSH2 0x1212 JUMP JUMPDEST PUSH1 0x40 MLOAD PUSH2 0x821 SWAP1 PUSH2 0x10F6 JUMP JUMPDEST PUSH1 0x0 PUSH1 0x40 MLOAD DUP1 DUP4 SUB DUP2 DUP6 DUP8 GAS CALL SWAP3 POP POP POP RETURNDATASIZE DUP1 PUSH1 0x0 DUP2 EQ PUSH2 0x85E JUMPI PUSH1 0x40 MLOAD SWAP2 POP PUSH1 0x1F NOT PUSH1 0x3F RETURNDATASIZE ADD AND DUP3 ADD PUSH1 0x40 MSTORE RETURNDATASIZE DUP3 MSTORE RETURNDATASIZE PUSH1 0x0 PUSH1 0x20 DUP5 ADD RETURNDATACOPY PUSH2 0x863 JUMP JUMPDEST PUSH1 0x60 SWAP2 POP JUMPDEST POP POP SWAP1 POP PUSH2 0x87B PUSH8 0xFE0F773DCEB54724 PUSH1 0xC0 SHL PUSH2 0xE15 JUMP JUMPDEST PUSH2 0x88F PUSH8 0x399C0F18621CBBA6 PUSH1 0xC0 SHL PUSH2 0xE15 JUMP JUMPDEST PUSH2 0x8A3 PUSH8 0xCF8E9CFF4483E877 PUSH1 0xC0 SHL PUSH2 0xE15 JUMP JUMPDEST DUP1 PUSH2 0x8E3 JUMPI PUSH1 0x40 MLOAD PUSH32 0x8C379A000000000000000000000000000000000000000000000000000000000 DUP2 MSTORE PUSH1 0x4 ADD PUSH2 0x8DA SWAP1 PUSH2 0x12B8 JUMP JUMPDEST PUSH1 0x40 MLOAD DUP1 SWAP2 SUB SWAP1 REVERT JUMPDEST PUSH2 0x8F7 PUSH8 0x3C27AD43D4C54C80 PUSH1 0xC0 SHL PUSH2 0xE15 JUMP JUMPDEST POP POP POP JUMP JUMPDEST PUSH2 0x910 PUSH8 0xFEF94F6C67786C80 PUSH1 0xC0 SHL PUSH2 0xE15 JUMP JUMPDEST PUSH2 0x924 PUSH8 0xE2EEEFC2FF52DC5D PUSH1 0xC0 SHL PUSH2 0xE15 JUMP JUMPDEST PUSH2 0x938 PUSH8 0x9EB092E4DDA84AD5 PUSH1 0xC0 SHL PUSH2 0xE15 JUMP JUMPDEST PUSH2 0x94C PUSH8 0x513E8409B8362BC6 PUSH1 0xC0 SHL PUSH2 0xE15 JUMP JUMPDEST PUSH1 0x1 PUSH1 0x0 SWAP1 SLOAD SWAP1 PUSH2 0x100 EXP SWAP1 DIV PUSH20 0xFFFFFFFFFFFFFFFFFFFFFFFFFFFFFFFFFFFFFFFF AND PUSH20 0xFFFFFFFFFFFFFFFFFFFFFFFFFFFFFFFFFFFFFFFF AND CALLER PUSH20 0xFFFFFFFFFFFFFFFFFFFFFFFFFFFFFFFFFFFFFFFF AND EQ PUSH2 0x9DC JUMPI PUSH1 0x40 MLOAD PUSH32 0x8C379A000000000000000000000000000000000000000000000000000000000 DUP2 MSTORE PUSH1 0x4 ADD PUSH2 0x9D3 SWAP1 PUSH2 0x1324 JUMP JUMPDEST PUSH1 0x40 MLOAD DUP1 SWAP2 SUB SWAP1 REVERT JUMPDEST PUSH2 0x9F0 PUSH8 0x3C9E16BE688939EC PUSH1 0xC0 SHL PUSH2 0xE15 JUMP JUMPDEST PUSH2 0xA04 PUSH8 0xBAD4B322AE299911 PUSH1 0xC0 SHL PUSH2 0xE15 JUMP JUMPDEST PUSH2 0xA18 PUSH8 0x2263132E811CF05 PUSH1 0xC0 SHL PUSH2 0xE15 JUMP JUMPDEST PUSH2 0xA2C PUSH8 0x31181E95686CF8B PUSH1 0xC0 SHL PUSH2 0xE15 JUMP JUMPDEST PUSH1 0x4 PUSH1 0x1 SWAP1 SLOAD SWAP1 PUSH2 0x100 EXP SWAP1 DIV PUSH1 0xFF AND ISZERO PUSH2 0xA7C JUMPI PUSH1 0x40 MLOAD PUSH32 0x8C379A000000000000000000000000000000000000000000000000000000000 DUP2 MSTORE PUSH1 0x4 ADD PUSH2 0xA73 SWAP1 PUSH2 0x1390 JUMP JUMPDEST PUSH1 0x40 MLOAD DUP1 SWAP2 SUB SWAP1 REVERT JUMPDEST PUSH2 0xA90 PUSH8 0xAB9F711D7A8C2997 PUSH1 0xC0 SHL PUSH2 0xE15 JUMP JUMPDEST PUSH2 0xAA4 PUSH8 0xDE5D6100257F3B43 PUSH1 0xC0 SHL PUSH2 0xE15 JUMP JUMPDEST PUSH2 0xAB8 PUSH8 0xECB71A8DF85291E6 PUSH1 0xC0 SHL PUSH2 0xE15 JUMP JUMPDEST PUSH2 0xACC PUSH8 0x1AAD141C3C83B2EA PUSH1 0xC0 SHL PUSH2 0xE15 JUMP JUMPDEST PUSH1 0x3 SLOAD CALLVALUE EQ PUSH2 0xB10 JUMPI PUSH1 0x40 MLOAD PUSH32 0x8C379A000000000000000000000000000000000000000000000000000000000 DUP2 MSTORE PUSH1 0x4 ADD PUSH2 0xB07 SWAP1 PUSH2 0x1422 JUMP JUMPDEST PUSH1 0x40 MLOAD DUP1 SWAP2 SUB SWAP1 REVERT JUMPDEST PUSH2 0xB24 PUSH8 0x3FBA4523E7EF365 PUSH1 0xC0 SHL PUSH2 0xE15 JUMP JUMPDEST PUSH2 0xB38 PUSH8 0x5896920269348D50 PUSH1 0xC0 SHL PUSH2 0xE15 JUMP JUMPDEST PUSH1 0x1 PUSH1 0x4 PUSH1 0x1 PUSH2 0x100 EXP DUP2 SLOAD DUP2 PUSH1 0xFF MUL NOT AND SWAP1 DUP4 ISZERO ISZERO MUL OR SWAP1 SSTORE POP JUMP JUMPDEST PUSH1 0x4 PUSH1 0x2 SWAP1 SLOAD SWAP1 PUSH2 0x100 EXP SWAP1 DIV PUSH1 0xFF AND DUP2 JUMP JUMPDEST PUSH1 0x3 SLOAD DUP2 JUMP JUMPDEST PUSH1 0x0 DUP1 SLOAD SWAP1 PUSH2 0x100 EXP SWAP1 DIV PUSH20 0xFFFFFFFFFFFFFFFFFFFFFFFFFFFFFFFFFFFFFFFF AND DUP2 JUMP JUMPDEST PUSH1 0x4 PUSH1 0x0 SWAP1 SLOAD SWAP1 PUSH2 0x100 EXP SWAP1 DIV PUSH1 0xFF AND DUP2 JUMP JUMPDEST PUSH1 0x4 PUSH1 0x1 SWAP1 SLOAD SWAP1 PUSH2 0x100 EXP SWAP1 DIV PUSH1 0xFF AND DUP2 JUMP JUMPDEST PUSH1 0x2 SLOAD DUP2 JUMP JUMPDEST PUSH2 0xBD2 PUSH8 0x56D1171B8B692FB8 PUSH1 0xC0 SHL PUSH2 0xE15 JUMP JUMPDEST PUSH2 0xBE6 PUSH8 0xCF0C2BDAD30C9596 PUSH1 0xC0 SHL PUSH2 0xE15 JUMP JUMPDEST PUSH2 0xBFA PUSH8 0xEA30DCE5F26AE9B PUSH1 0xC0 SHL PUSH2 0xE15 JUMP JUMPDEST PUSH2 0xC0E PUSH8 0xCECAF3CA71B07A59 PUSH1 0xC0 SHL PUSH2 0xE15 JUMP JUMPDEST PUSH1 0x0 DUP1 SLOAD SWAP1 PUSH2 0x100 EXP SWAP1 DIV PUSH20 0xFFFFFFFFFFFFFFFFFFFFFFFFFFFFFFFFFFFFFFFF AND PUSH20 0xFFFFFFFFFFFFFFFFFFFFFFFFFFFFFFFFFFFFFFFF AND CALLER PUSH20 0xFFFFFFFFFFFFFFFFFFFFFFFFFFFFFFFFFFFFFFFF AND EQ PUSH2 0xC9C JUMPI PUSH1 0x40 MLOAD PUSH32 0x8C379A000000000000000000000000000000000000000000000000000000000 DUP2 MSTORE PUSH1 0x4 ADD PUSH2 0xC93 SWAP1 PUSH2 0x148E JUMP JUMPDEST PUSH1 0x40 MLOAD DUP1 SWAP2 SUB SWAP1 REVERT JUMPDEST PUSH2 0xCB0 PUSH8 0x62058F8A0AED352E PUSH1 0xC0 SHL PUSH2 0xE15 JUMP JUMPDEST PUSH2 0xCC4 PUSH8 0x4F74176B081AB7FD PUSH1 0xC0 SHL PUSH2 0xE15 JUMP JUMPDEST PUSH2 0xCD8 PUSH8 0xB9ED15797217EB26 PUSH1 0xC0 SHL PUSH2 0xE15 JUMP JUMPDEST PUSH2 0xCEC PUSH8 0x715BB43D18C2C894 PUSH1 0xC0 SHL PUSH2 0xE15 JUMP JUMPDEST PUSH1 0x4 PUSH1 0x0 SWAP1 SLOAD SWAP1 PUSH2 0x100 EXP SWAP1 DIV PUSH1 0xFF AND ISZERO PUSH2 0xD3C JUMPI PUSH1 0x40 MLOAD PUSH32 0x8C379A000000000000000000000000000000000000000000000000000000000 DUP2 MSTORE PUSH1 0x4 ADD PUSH2 0xD33 SWAP1 PUSH2 0x14FA JUMP JUMPDEST PUSH1 0x40 MLOAD DUP1 SWAP2 SUB SWAP1 REVERT JUMPDEST PUSH2 0xD50 PUSH8 0x7FC023F9D59F3075 PUSH1 0xC0 SHL PUSH2 0xE15 JUMP JUMPDEST PUSH2 0xD64 PUSH8 0x4EAE47939E0C4747 PUSH1 0xC0 SHL PUSH2 0xE15 JUMP JUMPDEST PUSH2 0xD78 PUSH8 0x5F719EF4D2E9F7C3 PUSH1 0xC0 SHL PUSH2 0xE15 JUMP JUMPDEST PUSH2 0xD8C PUSH8 0xD3C80D03AAA5B934 PUSH1 0xC0 SHL PUSH2 0xE15 JUMP JUMPDEST PUSH1 0x3 SLOAD CALLVALUE EQ PUSH2 0xDD0 JUMPI PUSH1 0x40 MLOAD PUSH32 0x8C379A000000000000000000000000000000000000000000000000000000000 DUP2 MSTORE PUSH1 0x4 ADD PUSH2 0xDC7 SWAP1 PUSH2 0x1422 JUMP JUMPDEST PUSH1 0x40 MLOAD DUP1 SWAP2 SUB SWAP1 REVERT JUMPDEST PUSH2 0xDE4 PUSH8 0xAD6E47EAD614EF0 PUSH1 0xC0 SHL PUSH2 0xE15 JUMP JUMPDEST PUSH2 0xDF8 PUSH8 0xA663E35E51C92D54 PUSH1 0xC0 SHL PUSH2 0xE15 JUMP JUMPDEST PUSH1 0x1 PUSH1 0x4 PUSH1 0x0 PUSH2 0x100 EXP DUP2 SLOAD DUP2 PUSH1 0xFF MUL NOT AND SWAP1 DUP4 ISZERO ISZERO MUL OR SWAP1 SSTORE POP JUMP JUMPDEST POP JUMP JUMPDEST PUSH1 0x0 PUSH20 0xFFFFFFFFFFFFFFFFFFFFFFFFFFFFFFFFFFFFFFFF DUP3 AND SWAP1 POP SWAP2 SWAP1 POP JUMP JUMPDEST PUSH1 0x0 PUSH2 0xE43 DUP3 PUSH2 0xE18 JUMP JUMPDEST SWAP1 POP SWAP2 SWAP1 POP JUMP JUMPDEST PUSH2 0xE53 DUP2 PUSH2 0xE38 JUMP JUMPDEST DUP3 MSTORE POP POP JUMP JUMPDEST PUSH1 0x0 PUSH1 0x20 DUP3 ADD SWAP1 POP PUSH2 0xE6E PUSH1 0x0 DUP4 ADD DUP5 PUSH2 0xE4A JUMP JUMPDEST SWAP3 SWAP2 POP POP JUMP JUMPDEST PUSH1 0x0 DUP2 ISZERO ISZERO SWAP1 POP SWAP2 SWAP1 POP JUMP JUMPDEST PUSH2 0xE89 DUP2 PUSH2 0xE74 JUMP JUMPDEST DUP3 MSTORE POP POP JUMP JUMPDEST PUSH1 0x0 PUSH1 0x20 DUP3 ADD SWAP1 POP PUSH2 0xEA4 PUSH1 0x0 DUP4 ADD DUP5 PUSH2 0xE80 JUMP JUMPDEST SWAP3 SWAP2 POP POP JUMP JUMPDEST PUSH1 0x0 DUP2 SWAP1 POP SWAP2 SWAP1 POP JUMP JUMPDEST PUSH2 0xEBD DUP2 PUSH2 0xEAA JUMP JUMPDEST DUP3 MSTORE POP POP JUMP JUMPDEST PUSH1 0x0 PUSH1 0x20 DUP3 ADD SWAP1 POP PUSH2 0xED8 PUSH1 0x0 DUP4 ADD DUP5 PUSH2 0xEB4 JUMP JUMPDEST SWAP3 SWAP2 POP POP JUMP JUMPDEST PUSH1 0x0 DUP3 DUP3 MSTORE PUSH1 0x20 DUP3 ADD SWAP1 POP SWAP3 SWAP2 POP POP JUMP JUMPDEST PUSH32 0x4F6E6C792062757965722063616E20617070726F76652E000000000000000000 PUSH1 0x0 DUP3 ADD MSTORE POP JUMP JUMPDEST PUSH1 0x0 PUSH2 0xF25 PUSH1 0x17 DUP4 PUSH2 0xEDE JUMP JUMPDEST SWAP2 POP PUSH2 0xF30 DUP3 PUSH2 0xEEF JUMP JUMPDEST PUSH1 0x20 DUP3 ADD SWAP1 POP SWAP2 SWAP1 POP JUMP JUMPDEST PUSH1 0x0 PUSH1 0x20 DUP3 ADD SWAP1 POP DUP2 DUP2 SUB PUSH1 0x0 DUP4 ADD MSTORE PUSH2 0xF54 DUP2 PUSH2 0xF18 JUMP JUMPDEST SWAP1 POP SWAP2 SWAP1 POP JUMP JUMPDEST PUSH32 0x5472616E73616374696F6E2068617320616C7265616479206265656E20617070 PUSH1 0x0 DUP3 ADD MSTORE PUSH32 0x726F7665642E0000000000000000000000000000000000000000000000000000 PUSH1 0x20 DUP3 ADD MSTORE POP JUMP JUMPDEST PUSH1 0x0 PUSH2 0xFB7 PUSH1 0x26 DUP4 PUSH2 0xEDE JUMP JUMPDEST SWAP2 POP PUSH2 0xFC2 DUP3 PUSH2 0xF5B JUMP JUMPDEST PUSH1 0x40 DUP3 ADD SWAP1 POP SWAP2 SWAP1 POP JUMP JUMPDEST PUSH1 0x0 PUSH1 0x20 DUP3 ADD SWAP1 POP DUP2 DUP2 SUB PUSH1 0x0 DUP4 ADD MSTORE PUSH2 0xFE6 DUP2 PUSH2 0xFAA JUMP JUMPDEST SWAP1 POP SWAP2 SWAP1 POP JUMP JUMPDEST PUSH32 0x427579657220686173206E6F7420796574206465706F73697465640000000000 PUSH1 0x0 DUP3 ADD MSTORE POP JUMP JUMPDEST PUSH1 0x0 PUSH2 0x1023 PUSH1 0x1B DUP4 PUSH2 0xEDE JUMP JUMPDEST SWAP2 POP PUSH2 0x102E DUP3 PUSH2 0xFED JUMP JUMPDEST PUSH1 0x20 DUP3 ADD SWAP1 POP SWAP2 SWAP1 POP JUMP JUMPDEST PUSH1 0x0 PUSH1 0x20 DUP3 ADD SWAP1 POP DUP2 DUP2 SUB PUSH1 0x0 DUP4 ADD MSTORE PUSH2 0x1052 DUP2 PUSH2 0x1016 JUMP JUMPDEST SWAP1 POP SWAP2 SWAP1 POP JUMP JUMPDEST PUSH32 0x53656C6C657220686173206E6F7420796574206465706F736974656400000000 PUSH1 0x0 DUP3 ADD MSTORE POP JUMP JUMPDEST PUSH1 0x0 PUSH2 0x108F PUSH1 0x1C DUP4 PUSH2 0xEDE JUMP JUMPDEST SWAP2 POP PUSH2 0x109A DUP3 PUSH2 0x1059 JUMP JUMPDEST PUSH1 0x20 DUP3 ADD SWAP1 POP SWAP2 SWAP1 POP JUMP JUMPDEST PUSH1 0x0 PUSH1 0x20 DUP3 ADD SWAP1 POP DUP2 DUP2 SUB PUSH1 0x0 DUP4 ADD MSTORE PUSH2 0x10BE DUP2 PUSH2 0x1082 JUMP JUMPDEST SWAP1 POP SWAP2 SWAP1 POP JUMP JUMPDEST PUSH1 0x0 DUP2 SWAP1 POP SWAP3 SWAP2 POP POP JUMP JUMPDEST POP JUMP JUMPDEST PUSH1 0x0 PUSH2 0x10E0 PUSH1 0x0 DUP4 PUSH2 0x10C5 JUMP JUMPDEST SWAP2 POP PUSH2 0x10EB DUP3 PUSH2 0x10D0 JUMP JUMPDEST PUSH1 0x0 DUP3 ADD SWAP1 POP SWAP2 SWAP1 POP JUMP JUMPDEST PUSH1 0x0 PUSH2 0x1101 DUP3 PUSH2 0x10D3 JUMP JUMPDEST SWAP2 POP DUP2 SWAP1 POP SWAP2 SWAP1 POP JUMP JUMPDEST PUSH32 0x5061796D656E7420746F2073656C6C6572206661696C65642E00000000000000 PUSH1 0x0 DUP3 ADD MSTORE POP JUMP JUMPDEST PUSH1 0x0 PUSH2 0x1141 PUSH1 0x19 DUP4 PUSH2 0xEDE JUMP JUMPDEST SWAP2 POP PUSH2 0x114C DUP3 PUSH2 0x110B JUMP JUMPDEST PUSH1 0x20 DUP3 ADD SWAP1 POP SWAP2 SWAP1 POP JUMP JUMPDEST PUSH1 0x0 PUSH1 0x20 DUP3 ADD SWAP1 POP DUP2 DUP2 SUB PUSH1 0x0 DUP4 ADD MSTORE PUSH2 0x1170 DUP2 PUSH2 0x1134 JUMP JUMPDEST SWAP1 POP SWAP2 SWAP1 POP JUMP JUMPDEST PUSH32 0x4465706F73697420726566756E6420746F2073656C6C6572206661696C65642E PUSH1 0x0 DUP3 ADD MSTORE POP JUMP JUMPDEST PUSH1 0x0 PUSH2 0x11AD PUSH1 0x20 DUP4 PUSH2 0xEDE JUMP JUMPDEST SWAP2 POP PUSH2 0x11B8 DUP3 PUSH2 0x1177 JUMP JUMPDEST PUSH1 0x20 DUP3 ADD SWAP1 POP SWAP2 SWAP1 POP JUMP JUMPDEST PUSH1 0x0 PUSH1 0x20 DUP3 ADD SWAP1 POP DUP2 DUP2 SUB PUSH1 0x0 DUP4 ADD MSTORE PUSH2 0x11DC DUP2 PUSH2 0x11A0 JUMP JUMPDEST SWAP1 POP SWAP2 SWAP1 POP JUMP JUMPDEST PUSH32 0x4E487B7100000000000000000000000000000000000000000000000000000000 PUSH1 0x0 MSTORE PUSH1 0x11 PUSH1 0x4 MSTORE PUSH1 0x24 PUSH1 0x0 REVERT JUMPDEST PUSH1 0x0 PUSH2 0x121D DUP3 PUSH2 0xEAA JUMP JUMPDEST SWAP2 POP PUSH2 0x1228 DUP4 PUSH2 0xEAA JUMP JUMPDEST SWAP3 POP DUP3 DUP3 SUB SWAP1 POP DUP2 DUP2 GT ISZERO PUSH2 0x1240 JUMPI PUSH2 0x123F PUSH2 0x11E3 JUMP JUMPDEST JUMPDEST SWAP3 SWAP2 POP POP JUMP JUMPDEST PUSH32 0x526573696475616C206465706F73697420726566756E6420746F206275796572 PUSH1 0x0 DUP3 ADD MSTORE PUSH32 0x206661696C65642E000000000000000000000000000000000000000000000000 PUSH1 0x20 DUP3 ADD MSTORE POP JUMP JUMPDEST PUSH1 0x0 PUSH2 0x12A2 PUSH1 0x28 DUP4 PUSH2 0xEDE JUMP JUMPDEST SWAP2 POP PUSH2 0x12AD DUP3 PUSH2 0x1246 JUMP JUMPDEST PUSH1 0x40 DUP3 ADD SWAP1 POP SWAP2 SWAP1 POP JUMP JUMPDEST PUSH1 0x0 PUSH1 0x20 DUP3 ADD SWAP1 POP DUP2 DUP2 SUB PUSH1 0x0 DUP4 ADD MSTORE PUSH2 0x12D1 DUP2 PUSH2 0x1295 JUMP JUMPDEST SWAP1 POP SWAP2 SWAP1 POP JUMP JUMPDEST PUSH32 0x4F6E6C792073656C6C65722063616E206465706F7369742E0000000000000000 PUSH1 0x0 DUP3 ADD MSTORE POP JUMP JUMPDEST PUSH1 0x0 PUSH2 0x130E PUSH1 0x18 DUP4 PUSH2 0xEDE JUMP JUMPDEST SWAP2 POP PUSH2 0x1319 DUP3 PUSH2 0x12D8 JUMP JUMPDEST PUSH1 0x20 DUP3 ADD SWAP1 POP SWAP2 SWAP1 POP JUMP JUMPDEST PUSH1 0x0 PUSH1 0x20 DUP3 ADD SWAP1 POP DUP2 DUP2 SUB PUSH1 0x0 DUP4 ADD MSTORE PUSH2 0x133D DUP2 PUSH2 0x1301 JUMP JUMPDEST SWAP1 POP SWAP2 SWAP1 POP JUMP JUMPDEST PUSH32 0x53656C6C65722068617320616C7265616479206465706F73697465642E000000 PUSH1 0x0 DUP3 ADD MSTORE POP JUMP JUMPDEST PUSH1 0x0 PUSH2 0x137A PUSH1 0x1D DUP4 PUSH2 0xEDE JUMP JUMPDEST SWAP2 POP PUSH2 0x1385 DUP3 PUSH2 0x1344 JUMP JUMPDEST PUSH1 0x20 DUP3 ADD SWAP1 POP SWAP2 SWAP1 POP JUMP JUMPDEST PUSH1 0x0 PUSH1 0x20 DUP3 ADD SWAP1 POP DUP2 DUP2 SUB PUSH1 0x0 DUP4 ADD MSTORE PUSH2 0x13A9 DUP2 PUSH2 0x136D JUMP JUMPDEST SWAP1 POP SWAP2 SWAP1 POP JUMP JUMPDEST PUSH32 0x4465706F73697420616D6F756E742073686F756C6420626520657175616C2074 PUSH1 0x0 DUP3 ADD MSTORE PUSH32 0x6F20746865206465706F73697420616D6F756E74207370656369666965642E00 PUSH1 0x20 DUP3 ADD MSTORE POP JUMP JUMPDEST PUSH1 0x0 PUSH2 0x140C PUSH1 0x3F DUP4 PUSH2 0xEDE JUMP JUMPDEST SWAP2 POP PUSH2 0x1417 DUP3 PUSH2 0x13B0 JUMP JUMPDEST PUSH1 0x40 DUP3 ADD SWAP1 POP SWAP2 SWAP1 POP JUMP JUMPDEST PUSH1 0x0 PUSH1 0x20 DUP3 ADD SWAP1 POP DUP2 DUP2 SUB PUSH1 0x0 DUP4 ADD MSTORE PUSH2 0x143B DUP2 PUSH2 0x13FF JUMP JUMPDEST SWAP1 POP SWAP2 SWAP1 POP JUMP JUMPDEST PUSH32 0x4F6E6C792062757965722063616E206465706F7369742E000000000000000000 PUSH1 0x0 DUP3 ADD MSTORE POP JUMP JUMPDEST PUSH1 0x0 PUSH2 0x1478 PUSH1 0x17 DUP4 PUSH2 0xEDE JUMP JUMPDEST SWAP2 POP PUSH2 0x1483 DUP3 PUSH2 0x1442 JUMP JUMPDEST PUSH1 0x20 DUP3 ADD SWAP1 POP SWAP2 SWAP1 POP JUMP JUMPDEST PUSH1 0x0 PUSH1 0x20 DUP3 ADD SWAP1 POP DUP2 DUP2 SUB PUSH1 0x0 DUP4 ADD MSTORE PUSH2 0x14A7 DUP2 PUSH2 0x146B JUMP JUMPDEST SWAP1 POP SWAP2 SWAP1 POP JUMP JUMPDEST PUSH32 0x42757965722068617320616C7265616479206465706F73697465642E00000000 PUSH1 0x0 DUP3 ADD MSTORE POP JUMP JUMPDEST PUSH1 0x0 PUSH2 0x14E4 PUSH1 0x1C DUP4 PUSH2 0xEDE JUMP JUMPDEST SWAP2 POP PUSH2 0x14EF DUP3 PUSH2 0x14AE JUMP JUMPDEST PUSH1 0x20 DUP3 ADD SWAP1 POP SWAP2 SWAP1 POP JUMP JUMPDEST PUSH1 0x0 PUSH1 0x20 DUP3 ADD SWAP1 POP DUP2 DUP2 SUB PUSH1 0x0 DUP4 ADD MSTORE PUSH2 0x1513 DUP2 PUSH2 0x14D7 JUMP JUMPDEST SWAP1 POP SWAP2 SWAP1 POP JUMP INVALID LOG2 PUSH5 0x6970667358 0x22 SLT KECCAK256 CALLDATASIZE SWAP15 0xAC LOG4 0xC NOT SWAP11 CALLDATACOPY 0xCA PUSH31 0xA9605832C2EE9E82999345C12B7B368AF150D6D7874964736F6C6343000812 STOP CALLER "},"methodIdentifiers":{"approve()":"12424e3f","buyer()":"7150d8ae","buyerDeposited()":"7c148952","buyer_deposit()":"da4c829f","depositAmount()":"419759f5","isApproved()":"28f371aa","paymentAmount()":"c35905c6","seller()":"08551a53","sellerDeposited()":"8f8b252e","seller_deposit()":"1b5d3106"}}}}}