{
  "_format": "hh-sol-artifact-1",
  "contractName": "RevertingSellerAlwaysFail",
  "sourceName": "contracts/RevertingSellerAlwaysFail.sol",
  "abi": [
    {
      "inputs": [],
      "name": "depositAsSeller",
      "outputs": [],
      "stateMutability": "payable",
      "type": "function"
    },
    {
      "inputs": [],
      "name": "escrow",
      "outputs": [
        {
          "internalType": "address",
          "name": "",
          "type": "address"
        }
      ],
      "stateMutability": "view",
      "type": "function"
    },
    {
      "inputs": [
        {
          "internalType": "address",
          "name": "_escrow",
          "type": "address"
        }
      ],
      "name": "setEscrow",
      "outputs": [],
      "stateMutability": "nonpayable",
      "type": "function"
    },
    {
      "stateMutability": "payable",
      "type": "receive"
    }
  ],
  "bytecode": "0x608060405234801561001057600080fd5b506104f7806100206000396000f3fe6080604052600436106100385760003560e01c8063c10c35461461007d578063e2fdcc17146100a6578063e30335ca146100d157610078565b36610078576040517f08c379a000000000000000000000000000000000000000000000000000000000815260040161006f906102f3565b60405180910390fd5b600080fd5b34801561008957600080fd5b506100a4600480360381019061009f9190610376565b6100db565b005b3480156100b257600080fd5b506100bb61011e565b6040516100c891906103b2565b60405180910390f35b6100d9610142565b005b806000806101000a81548173ffffffffffffffffffffffffffffffffffffffff021916908373ffffffffffffffffffffffffffffffffffffffff16021790555050565b60008054906101000a900473ffffffffffffffffffffffffffffffffffffffff1681565b60008060009054906101000a900473ffffffffffffffffffffffffffffffffffffffff1673ffffffffffffffffffffffffffffffffffffffff16346040516024016040516020818303038152906040527f1b5d3106000000000000000000000000000000000000000000000000000000007bffffffffffffffffffffffffffffffffffffffffffffffffffffffff19166020820180517bffffffffffffffffffffffffffffffffffffffffffffffffffffffff838183161783525050505060405161020d919061043e565b60006040518083038185875af1925050503d806000811461024a576040519150601f19603f3d011682016040523d82523d6000602084013e61024f565b606091505b5050905080610293576040517f08c379a000000000000000000000000000000000000000000000000000000000815260040161028a906104a1565b60405180910390fd5b50565b600082825260208201905092915050565b7f53656c6c657220616c7761797320726576657274730000000000000000000000600082015250565b60006102dd601583610296565b91506102e8826102a7565b602082019050919050565b6000602082019050818103600083015261030c816102d0565b9050919050565b600080fd5b600073ffffffffffffffffffffffffffffffffffffffff82169050919050565b600061034382610318565b9050919050565b61035381610338565b811461035e57600080fd5b50565b6000813590506103708161034a565b92915050565b60006020828403121561038c5761038b610313565b5b600061039a84828501610361565b91505092915050565b6103ac81610338565b82525050565b60006020820190506103c760008301846103a3565b92915050565b600081519050919050565b600081905092915050565b60005b838110156104015780820151818401526020810190506103e6565b60008484015250505050565b6000610418826103cd565b61042281856103d8565b93506104328185602086016103e3565b80840191505092915050565b600061044a828461040d565b915081905092915050565b7f466f727761726465642073656c6c65725f6465706f736974206661696c656400600082015250565b600061048b601f83610296565b915061049682610455565b602082019050919050565b600060208201905081810360008301526104ba8161047e565b905091905056fea2646970667358221220bfe5e69974725718da122f87b9a99f2b9d4240103b0665a774d654ad66af20dc64736f6c63430008120033",
  "linkReferences": {},
  "deployedLinkReferences": {}
}