{
  "_format": "hh-sol-artifact-1",
  "contractName": "RevertingSeller",
  "sourceName": "contracts/RevertingSeller.sol",
  "abi": [
    {
      "inputs": [],
      "name": "depositAsSeller",
      "outputs": [],
      "stateMutability": "payable",
      "type": "function"
    },
    {
      "inputs": [],
      "name": "escrow",
      "outputs": [
        {
          "internalType": "address",
          "name": "",
          "type": "address"
        }
      ],
      "stateMutability": "view",
      "type": "function"
    },
    {
      "inputs": [],
      "name": "receiveCount",
      "outputs": [
        {
          "internalType": "uint256",
          "name": "",
          "type": "uint256"
        }
      ],
      "stateMutability": "view",
      "type": "function"
    },
    {
      "inputs": [
        {
          "internalType": "address",
          "name": "_escrow",
          "type": "address"
        }
      ],
      "name": "setEscrow",
      "outputs": [],
      "stateMutability": "nonpayable",
      "type": "function"
    },
    {
      "stateMutability": "payable",
      "type": "receive"
    }
  ],
  "bytecode": "0x608060405234801561001057600080fd5b50610602806100206000396000f3fe6080604052600436106100435760003560e01c80637ba85592146100ac578063c10c3546146100d7578063e2fdcc1714610100578063e30335ca1461012b576100a7565b366100a7576001600081548092919061005b9061032f565b91905055506001805403156100a5576040517f08c379a000000000000000000000000000000000000000000000000000000000815260040161009c906103d4565b60405180910390fd5b005b600080fd5b3480156100b857600080fd5b506100c1610135565b6040516100ce9190610403565b60405180910390f35b3480156100e357600080fd5b506100fe60048036038101906100f99190610481565b61013b565b005b34801561010c57600080fd5b5061011561017e565b60405161012291906104bd565b60405180910390f35b6101336101a2565b005b60015481565b806000806101000a81548173ffffffffffffffffffffffffffffffffffffffff021916908373ffffffffffffffffffffffffffffffffffffffff16021790555050565b60008054906101000a900473ffffffffffffffffffffffffffffffffffffffff1681565b60008060009054906101000a900473ffffffffffffffffffffffffffffffffffffffff1673ffffffffffffffffffffffffffffffffffffffff16346040516024016040516020818303038152906040527f1b5d3106000000000000000000000000000000000000000000000000000000007bffffffffffffffffffffffffffffffffffffffffffffffffffffffff19166020820180517bffffffffffffffffffffffffffffffffffffffffffffffffffffffff838183161783525050505060405161026d9190610549565b60006040518083038185875af1925050503d80600081146102aa576040519150601f19603f3d011682016040523d82523d6000602084013e6102af565b606091505b50509050806102f3576040517f08c379a00000000000000000000000000000000000000000000000000000000081526004016102ea906105ac565b60405180910390fd5b50565b7f4e487b7100000000000000000000000000000000000000000000000000000000600052601160045260246000fd5b6000819050919050565b600061033a82610325565b91507fffffffffffffffffffffffffffffffffffffffffffffffffffffffffffffffff820361036c5761036b6102f6565b5b600182019050919050565b600082825260208201905092915050565b7f53656c6c657220726576657274656420696e74656e74696f6e616c6c79000000600082015250565b60006103be601d83610377565b91506103c982610388565b602082019050919050565b600060208201905081810360008301526103ed816103b1565b9050919050565b6103fd81610325565b82525050565b600060208201905061041860008301846103f4565b92915050565b600080fd5b600073ffffffffffffffffffffffffffffffffffffffff82169050919050565b600061044e82610423565b9050919050565b61045e81610443565b811461046957600080fd5b50565b60008135905061047b81610455565b92915050565b6000602082840312156104975761049661041e565b5b60006104a58482850161046c565b91505092915050565b6104b781610443565b82525050565b60006020820190506104d260008301846104ae565b92915050565b600081519050919050565b600081905092915050565b60005b8381101561050c5780820151818401526020810190506104f1565b60008484015250505050565b6000610523826104d8565b61052d81856104e3565b935061053d8185602086016104ee565b80840191505092915050565b60006105558284610518565b915081905092915050565b7f466f727761726465642073656c6c65725f6465706f736974206661696c656400600082015250565b6000610596601f83610377565b91506105a182610560565b602082019050919050565b600060208201905081810360008301526105c581610589565b905091905056fea2646970667358221220e5adc0a3319cf0f36e77a7829a6ed25c524e24a89b879dbd6adbce05543e2a1364736f6c63430008120033",
  "linkReferences": {},
  "deployedLinkReferences": {}
}