{
  "_format": "hh-sol-artifact-1",
  "contractName": "DoubleDepositEscrow",
  "sourceName": "contracts/DoubleDepositEscrow.sol",
  "abi": [
    {
      "inputs": [
        {
          "internalType": "address payable",
          "name": "_buyer",
          "type": "address"
        },
        {
          "internalType": "address payable",
          "name": "_seller",
          "type": "address"
        },
        {
          "internalType": "uint256",
          "name": "_paymentAmount",
          "type": "uint256"
        },
        {
          "internalType": "uint256",
          "name": "_depositAmount",
          "type": "uint256"
        }
      ],
      "stateMutability": "nonpayable",
      "type": "constructor"
    },
    {
      "inputs": [],
      "name": "approve",
      "outputs": [],
      "stateMutability": "nonpayable",
      "type": "function"
    },
    {
      "inputs": [],
      "name": "buyer",
      "outputs": [
        {
          "internalType": "address payable",
          "name": "",
          "type": "address"
        }
      ],
      "stateMutability": "view",
      "type": "function"
    },
    {
      "inputs": [],
      "name": "buyerDeposited",
      "outputs": [
        {
          "internalType": "bool",
          "name": "",
          "type": "bool"
        }
      ],
      "stateMutability": "view",
      "type": "function"
    },
    {
      "inputs": [],
      "name": "buyer_deposit",
      "outputs": [],
      "stateMutability": "payable",
      "type": "function"
    },
    {
      "inputs": [],
      "name": "depositAmount",
      "outputs": [
        {
          "internalType": "uint256",
          "name": "",
          "type": "uint256"
        }
      ],
      "stateMutability": "view",
      "type": "function"
    },
    {
      "inputs": [],
      "name": "isApproved",
      "outputs": [
        {
          "internalType": "bool",
          "name": "",
          "type": "bool"
        }
      ],
      "stateMutability": "view",
      "type": "function"
    },
    {
      "inputs": [],
      "name": "paymentAmount",
      "outputs": [
        {
          "internalType": "uint256",
          "name": "",
          "type": "uint256"
        }
      ],
      "stateMutability": "view",
      "type": "function"
    },
    {
      "inputs": [],
      "name": "seller",
      "outputs": [
        {
          "internalType": "address payable",
          "name": "",
          "type": "address"
        }
      ],
      "stateMutability": "view",
      "type": "function"
    },
    {
      "inputs": [],
      "name": "sellerDeposited",
      "outputs": [
        {
          "internalType": "bool",
          "name": "",
          "type": "bool"
        }
      ],
      "stateMutability": "view",
      "type": "function"
    },
    {
      "inputs": [],
      "name": "seller_deposit",
      "outputs": [],
      "stateMutability": "payable",
      "type": "function"
    }
  ],
  "bytecode": "0x60806040523480156200001157600080fd5b50604051620019d9380380620019d983398181016040528101906200003791906200035e565b62000053677364c5374fe9993960c01b620002b660201b60201c565b6200006f67f2235b69f8c1b1af60c01b620002b660201b60201c565b6200008b672cbc182c9c6435fb60c01b620002b660201b60201c565b620000a767e0aee8bc181e93ca60c01b620002b660201b60201c565b818111620000ec576040517f08c379a0000000000000000000000000000000000000000000000000000000008152600401620000e39062000457565b60405180910390fd5b6200010867c4ccbb1e8accfa9a60c01b620002b660201b60201c565b6200012467afde2540bcc7ff3260c01b620002b660201b60201c565b836000806101000a81548173ffffffffffffffffffffffffffffffffffffffff021916908373ffffffffffffffffffffffffffffffffffffffff1602179055506200018067547ae007fe0f386a60c01b620002b660201b60201c565b82600160006101000a81548173ffffffffffffffffffffffffffffffffffffffff021916908373ffffffffffffffffffffffffffffffffffffffff160217905550620001dd675eee148ee18f996e60c01b620002b660201b60201c565b8160028190555062000200672506752099f3840860c01b620002b660201b60201c565b8060038190555062000223679e341714a706c02b60c01b620002b660201b60201c565b6000600460006101000a81548160ff0219169083151502179055506200025a67af04fd34ccab2ffe60c01b620002b660201b60201c565b6000600460016101000a81548160ff021916908315150217905550620002916785148d10729929e260c01b620002b660201b60201c565b6000600460026101000a81548160ff0219169083151502179055505050505062000479565b50565b600080fd5b600073ffffffffffffffffffffffffffffffffffffffff82169050919050565b6000620002eb82620002be565b9050919050565b620002fd81620002de565b81146200030957600080fd5b50565b6000815190506200031d81620002f2565b92915050565b6000819050919050565b620003388162000323565b81146200034457600080fd5b50565b60008151905062000358816200032d565b92915050565b600080600080608085870312156200037b576200037a620002b9565b5b60006200038b878288016200030c565b94505060206200039e878288016200030c565b9350506040620003b18782880162000347565b9250506060620003c48782880162000347565b91505092959194509250565b600082825260208201905092915050565b7f4465706f73697420616d6f756e74206d7573742062652067726561746572207460008201527f68616e207061796d656e7420616d6f756e740000000000000000000000000000602082015250565b60006200043f603283620003d0565b91506200044c82620003e1565b604082019050919050565b60006020820190508181036000830152620004728162000430565b9050919050565b61155080620004896000396000f3fe6080604052600436106100915760003560e01c80637150d8ae116100595780637150d8ae146101385780637c148952146101635780638f8b252e1461018e578063c35905c6146101b9578063da4c829f146101e457610091565b806308551a531461009657806312424e3f146100c15780631b5d3106146100d857806328f371aa146100e2578063419759f51461010d575b600080fd5b3480156100a257600080fd5b506100ab6101ee565b6040516100b89190610e59565b60405180910390f35b3480156100cd57600080fd5b506100d6610214565b005b6100e06108fc565b005b3480156100ee57600080fd5b506100f7610b55565b6040516101049190610e8f565b60405180910390f35b34801561011957600080fd5b50610122610b68565b60405161012f9190610ec3565b60405180910390f35b34801561014457600080fd5b5061014d610b6e565b60405161015a9190610e59565b60405180910390f35b34801561016f57600080fd5b50610178610b92565b6040516101859190610e8f565b60405180910390f35b34801561019a57600080fd5b506101a3610ba5565b6040516101b09190610e8f565b60405180910390f35b3480156101c557600080fd5b506101ce610bb8565b6040516101db9190610ec3565b60405180910390f35b6101ec610bbe565b005b600160009054906101000a900473ffffffffffffffffffffffffffffffffffffffff1681565b61022867a0dc55cfec02a51a60c01b610e15565b61023c67a1f1a645e735c92f60c01b610e15565b6102506786a9c663f8d0eab860c01b610e15565b61026467662b77ba311946a260c01b610e15565b60008054906101000a900473ffffffffffffffffffffffffffffffffffffffff1673ffffffffffffffffffffffffffffffffffffffff163373ffffffffffffffffffffffffffffffffffffffff16146102f2576040517f08c379a00000000000000000000000000000000000000000000000000000000081526004016102e990610f3b565b60405180910390fd5b610306673ad146cfdd6f01e060c01b610e15565b61031a67a3b8d8d4dcbcb52a60c01b610e15565b61032e67bb761dabf1e8dc0960c01b610e15565b610342677cda767f3e041f1460c01b610e15565b600460029054906101000a900460ff1615610392576040517f08c379a000000000000000000000000000000000000000000000000000000000815260040161038990610fcd565b60405180910390fd5b6103a66785c950b14cbe181b60c01b610e15565b6103ba67560db76bb817a43260c01b610e15565b6103ce67a3ae96e0d4c03fe560c01b610e15565b6103e26704ad7a9548c3891860c01b610e15565b600460009054906101000a900460ff16610431576040517f08c379a000000000000000000000000000000000000000000000000000000000815260040161042890611039565b60405180910390fd5b61044567e4a60b4b49fa572660c01b610e15565b6104596768be537fed6b0f3160c01b610e15565b61046d6734d039e0055a9d5660c01b610e15565b61048167ac1efc5e8f23d8b060c01b610e15565b600460019054906101000a900460ff166104d0576040517f08c379a00000000000000000000000000000000000000000000000000000000081526004016104c7906110a5565b60405180910390fd5b6104e4675789739c9bb7675760c01b610e15565b6104f8677f15fb26a2ee53cc60c01b610e15565b6001600460026101000a81548160ff02191690831515021790555061052767b79ca06c405bde6660c01b610e15565b61053b6780bd6ff7fff4efd360c01b610e15565b6000600160009054906101000a900473ffffffffffffffffffffffffffffffffffffffff1673ffffffffffffffffffffffffffffffffffffffff16600254604051610585906110f6565b60006040518083038185875af1925050503d80600081146105c2576040519150601f19603f3d011682016040523d82523d6000602084013e6105c7565b606091505b505090506105df67290f946b912c64ac60c01b610e15565b6105f367581644d6055d8df060c01b610e15565b61060767754d61104cd25cae60c01b610e15565b80610647576040517f08c379a000000000000000000000000000000000000000000000000000000000815260040161063e90611157565b60405180910390fd5b61065b67e1055491e24f021560c01b610e15565b61066f6731c0fb1629c3042560c01b610e15565b6106836713a208d723a9b67d60c01b610e15565b6000600160009054906101000a900473ffffffffffffffffffffffffffffffffffffffff1673ffffffffffffffffffffffffffffffffffffffff166003546040516106cd906110f6565b60006040518083038185875af1925050503d806000811461070a576040519150601f19603f3d011682016040523d82523d6000602084013e61070f565b606091505b50509050610727677c17bd6a0de58f4c60c01b610e15565b61073b6722334c29473d178160c01b610e15565b61074f6793f27f83c5eccdd660c01b610e15565b8061078f576040517f08c379a0000000000000000000000000000000000000000000000000000000008152600401610786906111c3565b60405180910390fd5b6107a36718c02e4b2775191060c01b610e15565b6107b767c2024d9cd5f7122860c01b610e15565b6107cb673f9e3aa1c5e6dabf60c01b610e15565b60008060009054906101000a900473ffffffffffffffffffffffffffffffffffffffff1673ffffffffffffffffffffffffffffffffffffffff166002546003546108159190611212565b604051610821906110f6565b60006040518083038185875af1925050503d806000811461085e576040519150601f19603f3d011682016040523d82523d6000602084013e610863565b606091505b5050905061087b67fe0f773dceb5472460c01b610e15565b61088f67399c0f18621cbba660c01b610e15565b6108a367cf8e9cff4483e87760c01b610e15565b806108e3576040517f08c379a00000000000000000000000000000000000000000000000000000000081526004016108da906112b8565b60405180910390fd5b6108f7673c27ad43d4c54c8060c01b610e15565b505050565b61091067fef94f6c67786c8060c01b610e15565b61092467e2eeefc2ff52dc5d60c01b610e15565b610938679eb092e4dda84ad560c01b610e15565b61094c67513e8409b8362bc660c01b610e15565b600160009054906101000a900473ffffffffffffffffffffffffffffffffffffffff1673ffffffffffffffffffffffffffffffffffffffff163373ffffffffffffffffffffffffffffffffffffffff16146109dc576040517f08c379a00000000000000000000000000000000000000000000000000000000081526004016109d390611324565b60405180910390fd5b6109f0673c9e16be688939ec60c01b610e15565b610a0467bad4b322ae29991160c01b610e15565b610a186702263132e811cf0560c01b610e15565b610a2c67031181e95686cf8b60c01b610e15565b600460019054906101000a900460ff1615610a7c576040517f08c379a0000000000000000000000000000000000000000000000000000000008152600401610a7390611390565b60405180910390fd5b610a9067ab9f711d7a8c299760c01b610e15565b610aa467de5d6100257f3b4360c01b610e15565b610ab867ecb71a8df85291e660c01b610e15565b610acc671aad141c3c83b2ea60c01b610e15565b6003543414610b10576040517f08c379a0000000000000000000000000000000000000000000000000000000008152600401610b0790611422565b60405180910390fd5b610b246703fba4523e7ef36560c01b610e15565b610b38675896920269348d5060c01b610e15565b6001600460016101000a81548160ff021916908315150217905550565b600460029054906101000a900460ff1681565b60035481565b60008054906101000a900473ffffffffffffffffffffffffffffffffffffffff1681565b600460009054906101000a900460ff1681565b600460019054906101000a900460ff1681565b60025481565b610bd26756d1171b8b692fb860c01b610e15565b610be667cf0c2bdad30c959660c01b610e15565b610bfa670ea30dce5f26ae9b60c01b610e15565b610c0e67cecaf3ca71b07a5960c01b610e15565b60008054906101000a900473ffffffffffffffffffffffffffffffffffffffff1673ffffffffffffffffffffffffffffffffffffffff163373ffffffffffffffffffffffffffffffffffffffff1614610c9c576040517f08c379a0000000000000000000000000000000000000000000000000000000008152600401610c939061148e565b60405180910390fd5b610cb06762058f8a0aed352e60c01b610e15565b610cc4674f74176b081ab7fd60c01b610e15565b610cd867b9ed15797217eb2660c01b610e15565b610cec67715bb43d18c2c89460c01b610e15565b600460009054906101000a900460ff1615610d3c576040517f08c379a0000000000000000000000000000000000000000000000000000000008152600401610d33906114fa565b60405180910390fd5b610d50677fc023f9d59f307560c01b610e15565b610d64674eae47939e0c474760c01b610e15565b610d78675f719ef4d2e9f7c360c01b610e15565b610d8c67d3c80d03aaa5b93460c01b610e15565b6003543414610dd0576040517f08c379a0000000000000000000000000000000000000000000000000000000008152600401610dc790611422565b60405180910390fd5b610de4670ad6e47ead614ef060c01b610e15565b610df867a663e35e51c92d5460c01b610e15565b6001600460006101000a81548160ff021916908315150217905550565b50565b600073ffffffffffffffffffffffffffffffffffffffff82169050919050565b6000610e4382610e18565b9050919050565b610e5381610e38565b82525050565b6000602082019050610e6e6000830184610e4a565b92915050565b60008115159050919050565b610e8981610e74565b82525050565b6000602082019050610ea46000830184610e80565b92915050565b6000819050919050565b610ebd81610eaa565b82525050565b6000602082019050610ed86000830184610eb4565b92915050565b600082825260208201905092915050565b7f4f6e6c792062757965722063616e20617070726f76652e000000000000000000600082015250565b6000610f25601783610ede565b9150610f3082610eef565b602082019050919050565b60006020820190508181036000830152610f5481610f18565b9050919050565b7f5472616e73616374696f6e2068617320616c7265616479206265656e2061707060008201527f726f7665642e0000000000000000000000000000000000000000000000000000602082015250565b6000610fb7602683610ede565b9150610fc282610f5b565b604082019050919050565b60006020820190508181036000830152610fe681610faa565b9050919050565b7f427579657220686173206e6f7420796574206465706f73697465640000000000600082015250565b6000611023601b83610ede565b915061102e82610fed565b602082019050919050565b6000602082019050818103600083015261105281611016565b9050919050565b7f53656c6c657220686173206e6f7420796574206465706f736974656400000000600082015250565b600061108f601c83610ede565b915061109a82611059565b602082019050919050565b600060208201905081810360008301526110be81611082565b9050919050565b600081905092915050565b50565b60006110e06000836110c5565b91506110eb826110d0565b600082019050919050565b6000611101826110d3565b9150819050919050565b7f5061796d656e7420746f2073656c6c6572206661696c65642e00000000000000600082015250565b6000611141601983610ede565b915061114c8261110b565b602082019050919050565b6000602082019050818103600083015261117081611134565b9050919050565b7f4465706f73697420726566756e6420746f2073656c6c6572206661696c65642e600082015250565b60006111ad602083610ede565b91506111b882611177565b602082019050919050565b600060208201905081810360008301526111dc816111a0565b9050919050565b7f4e487b7100000000000000000000000000000000000000000000000000000000600052601160045260246000fd5b600061121d82610eaa565b915061122883610eaa565b92508282039050818111156112405761123f6111e3565b5b92915050565b7f526573696475616c206465706f73697420726566756e6420746f20627579657260008201527f206661696c65642e000000000000000000000000000000000000000000000000602082015250565b60006112a2602883610ede565b91506112ad82611246565b604082019050919050565b600060208201905081810360008301526112d181611295565b9050919050565b7f4f6e6c792073656c6c65722063616e206465706f7369742e0000000000000000600082015250565b600061130e601883610ede565b9150611319826112d8565b602082019050919050565b6000602082019050818103600083015261133d81611301565b9050919050565b7f53656c6c65722068617320616c7265616479206465706f73697465642e000000600082015250565b600061137a601d83610ede565b915061138582611344565b602082019050919050565b600060208201905081810360008301526113a98161136d565b9050919050565b7f4465706f73697420616d6f756e742073686f756c6420626520657175616c207460008201527f6f20746865206465706f73697420616d6f756e74207370656369666965642e00602082015250565b600061140c603f83610ede565b9150611417826113b0565b604082019050919050565b6000602082019050818103600083015261143b816113ff565b9050919050565b7f4f6e6c792062757965722063616e206465706f7369742e000000000000000000600082015250565b6000611478601783610ede565b915061148382611442565b602082019050919050565b600060208201905081810360008301526114a78161146b565b9050919050565b7f42757965722068617320616c7265616479206465706f73697465642e00000000600082015250565b60006114e4601c83610ede565b91506114ef826114ae565b602082019050919050565b60006020820190508181036000830152611513816114d7565b905091905056fea2646970667358221220369eaca40c199a37ca7ea9605832c2ee9e82999345c12b7b368af150d6d7874964736f6c63430008120033",
  "linkReferences": {},
  "deployedLinkReferences": {}
}