{
  "_format": "hh-sol-artifact-1",
  "contractName": "DoubleDepositEscrow",
  "sourceName": "contracts/DoubleDepositEscrow.sol",
  "abi": [
    {
      "inputs": [
        {
          "internalType": "address payable",
          "name": "_buyer",
          "type": "address"
        },
        {
          "internalType": "address payable",
          "name": "_seller",
          "type": "address"
        },
        {
          "internalType": "uint256",
          "name": "_paymentAmount",
          "type": "uint256"
        },
        {
          "internalType": "uint256",
          "name": "_depositAmount",
          "type": "uint256"
        }
      ],
      "stateMutability": "nonpayable",
      "type": "constructor"
    },
    {
      "inputs": [],
      "name": "approve",
      "outputs": [],
      "stateMutability": "nonpayable",
      "type": "function"
    },
    {
      "inputs": [],
      "name": "buyer",
      "outputs": [
        {
          "internalType": "address payable",
          "name": "",
          "type": "address"
        }
      ],
      "stateMutability": "view",
      "type": "function"
    },
    {
      "inputs": [],
      "name": "buyerDeposited",
      "outputs": [
        {
          "internalType": "bool",
          "name": "",
          "type": "bool"
        }
      ],
      "stateMutability": "view",
      "type": "function"
    },
    {
      "inputs": [],
      "name": "buyer_deposit",
      "outputs": [],
      "stateMutability": "payable",
      "type": "function"
    },
    {
      "inputs": [],
      "name": "depositAmount",
      "outputs": [
        {
          "internalType": "uint256",
          "name": "",
          "type": "uint256"
        }
      ],
      "stateMutability": "view",
      "type": "function"
    },
    {
      "inputs": [],
      "name": "isApproved",
      "outputs": [
        {
          "internalType": "bool",
          "name": "",
          "type": "bool"
        }
      ],
      "stateMutability": "view",
      "type": "function"
    },
    {
      "inputs": [],
      "name": "paymentAmount",
      "outputs": [
        {
          "internalType": "uint256",
          "name": "",
          "type": "uint256"
        }
      ],
      "stateMutability": "view",
      "type": "function"
    },
    {
      "inputs": [],
      "name": "seller",
      "outputs": [
        {
          "internalType": "address payable",
          "name": "",
          "type": "address"
        }
      ],
      "stateMutability": "view",
      "type": "function"
    },
    {
      "inputs": [],
      "name": "sellerDeposited",
      "outputs": [
        {
          "internalType": "bool",
          "name": "",
          "type": "bool"
        }
      ],
      "stateMutability": "view",
      "type": "function"
    },
    {
      "inputs": [],
      "name": "seller_deposit",
      "outputs": [],
      "stateMutability": "payable",
      "type": "function"
    }
  ],
  "bytecode": "0x60806040523480156200001157600080fd5b50604051620013833803806200138383398181016040528101906200003791906200020b565b8181116200007c576040517f08c379a0000000000000000000000000000000000000000000000000000000008152600401620000739062000304565b60405180910390fd5b836000806101000a81548173ffffffffffffffffffffffffffffffffffffffff021916908373ffffffffffffffffffffffffffffffffffffffff16021790555082600160006101000a81548173ffffffffffffffffffffffffffffffffffffffff021916908373ffffffffffffffffffffffffffffffffffffffff16021790555081600281905550806003819055506000600460006101000a81548160ff0219169083151502179055506000600460016101000a81548160ff0219169083151502179055506000600460026101000a81548160ff0219169083151502179055505050505062000326565b600080fd5b600073ffffffffffffffffffffffffffffffffffffffff82169050919050565b600062000198826200016b565b9050919050565b620001aa816200018b565b8114620001b657600080fd5b50565b600081519050620001ca816200019f565b92915050565b6000819050919050565b620001e581620001d0565b8114620001f157600080fd5b50565b6000815190506200020581620001da565b92915050565b6000806000806080858703121562000228576200022762000166565b5b60006200023887828801620001b9565b94505060206200024b87828801620001b9565b93505060406200025e87828801620001f4565b92505060606200027187828801620001f4565b91505092959194509250565b600082825260208201905092915050565b7f4465706f73697420616d6f756e74206d7573742062652067726561746572207460008201527f68616e207061796d656e7420616d6f756e740000000000000000000000000000602082015250565b6000620002ec6032836200027d565b9150620002f9826200028e565b604082019050919050565b600060208201905081810360008301526200031f81620002dd565b9050919050565b61104d80620003366000396000f3fe6080604052600436106100915760003560e01c80637150d8ae116100595780637150d8ae146101385780637c148952146101635780638f8b252e1461018e578063c35905c6146101b9578063da4c829f146101e457610091565b806308551a531461009657806312424e3f146100c15780631b5d3106146100d857806328f371aa146100e2578063419759f51461010d575b600080fd5b3480156100a257600080fd5b506100ab6101ee565b6040516100b89190610956565b60405180910390f35b3480156100cd57600080fd5b506100d6610214565b005b6100e061062c565b005b3480156100ee57600080fd5b506100f761076d565b604051610104919061098c565b60405180910390f35b34801561011957600080fd5b50610122610780565b60405161012f91906109c0565b60405180910390f35b34801561014457600080fd5b5061014d610786565b60405161015a9190610956565b60405180910390f35b34801561016f57600080fd5b506101786107aa565b604051610185919061098c565b60405180910390f35b34801561019a57600080fd5b506101a36107bd565b6040516101b0919061098c565b60405180910390f35b3480156101c557600080fd5b506101ce6107d0565b6040516101db91906109c0565b60405180910390f35b6101ec6107d6565b005b600160009054906101000a900473ffffffffffffffffffffffffffffffffffffffff1681565b60008054906101000a900473ffffffffffffffffffffffffffffffffffffffff1673ffffffffffffffffffffffffffffffffffffffff163373ffffffffffffffffffffffffffffffffffffffff16146102a2576040517f08c379a000000000000000000000000000000000000000000000000000000000815260040161029990610a38565b60405180910390fd5b600460029054906101000a900460ff16156102f2576040517f08c379a00000000000000000000000000000000000000000000000000000000081526004016102e990610aca565b60405180910390fd5b600460009054906101000a900460ff16610341576040517f08c379a000000000000000000000000000000000000000000000000000000000815260040161033890610b36565b60405180910390fd5b600460019054906101000a900460ff16610390576040517f08c379a000000000000000000000000000000000000000000000000000000000815260040161038790610ba2565b60405180910390fd5b6001600460026101000a81548160ff0219169083151502179055506000600160009054906101000a900473ffffffffffffffffffffffffffffffffffffffff1673ffffffffffffffffffffffffffffffffffffffff166002546040516103f590610bf3565b60006040518083038185875af1925050503d8060008114610432576040519150601f19603f3d011682016040523d82523d6000602084013e610437565b606091505b505090508061047b576040517f08c379a000000000000000000000000000000000000000000000000000000000815260040161047290610c54565b60405180910390fd5b6000600160009054906101000a900473ffffffffffffffffffffffffffffffffffffffff1673ffffffffffffffffffffffffffffffffffffffff166003546040516104c590610bf3565b60006040518083038185875af1925050503d8060008114610502576040519150601f19603f3d011682016040523d82523d6000602084013e610507565b606091505b505090508061054b576040517f08c379a000000000000000000000000000000000000000000000000000000000815260040161054290610cc0565b60405180910390fd5b60008060009054906101000a900473ffffffffffffffffffffffffffffffffffffffff1673ffffffffffffffffffffffffffffffffffffffff166002546003546105959190610d0f565b6040516105a190610bf3565b60006040518083038185875af1925050503d80600081146105de576040519150601f19603f3d011682016040523d82523d6000602084013e6105e3565b606091505b5050905080610627576040517f08c379a000000000000000000000000000000000000000000000000000000000815260040161061e90610db5565b60405180910390fd5b505050565b600160009054906101000a900473ffffffffffffffffffffffffffffffffffffffff1673ffffffffffffffffffffffffffffffffffffffff163373ffffffffffffffffffffffffffffffffffffffff16146106bc576040517f08c379a00000000000000000000000000000000000000000000000000000000081526004016106b390610e21565b60405180910390fd5b600460019054906101000a900460ff161561070c576040517f08c379a000000000000000000000000000000000000000000000000000000000815260040161070390610e8d565b60405180910390fd5b6003543414610750576040517f08c379a000000000000000000000000000000000000000000000000000000000815260040161074790610f1f565b60405180910390fd5b6001600460016101000a81548160ff021916908315150217905550565b600460029054906101000a900460ff1681565b60035481565b60008054906101000a900473ffffffffffffffffffffffffffffffffffffffff1681565b600460009054906101000a900460ff1681565b600460019054906101000a900460ff1681565b60025481565b60008054906101000a900473ffffffffffffffffffffffffffffffffffffffff1673ffffffffffffffffffffffffffffffffffffffff163373ffffffffffffffffffffffffffffffffffffffff1614610864576040517f08c379a000000000000000000000000000000000000000000000000000000000815260040161085b90610f8b565b60405180910390fd5b600460009054906101000a900460ff16156108b4576040517f08c379a00000000000000000000000000000000000000000000000000000000081526004016108ab90610ff7565b60405180910390fd5b60035434146108f8576040517f08c379a00000000000000000000000000000000000000000000000000000000081526004016108ef90610f1f565b60405180910390fd5b6001600460006101000a81548160ff021916908315150217905550565b600073ffffffffffffffffffffffffffffffffffffffff82169050919050565b600061094082610915565b9050919050565b61095081610935565b82525050565b600060208201905061096b6000830184610947565b92915050565b60008115159050919050565b61098681610971565b82525050565b60006020820190506109a1600083018461097d565b92915050565b6000819050919050565b6109ba816109a7565b82525050565b60006020820190506109d560008301846109b1565b92915050565b600082825260208201905092915050565b7f4f6e6c792062757965722063616e20617070726f76652e000000000000000000600082015250565b6000610a226017836109db565b9150610a2d826109ec565b602082019050919050565b60006020820190508181036000830152610a5181610a15565b9050919050565b7f5472616e73616374696f6e2068617320616c7265616479206265656e2061707060008201527f726f7665642e0000000000000000000000000000000000000000000000000000602082015250565b6000610ab46026836109db565b9150610abf82610a58565b604082019050919050565b60006020820190508181036000830152610ae381610aa7565b9050919050565b7f427579657220686173206e6f7420796574206465706f73697465640000000000600082015250565b6000610b20601b836109db565b9150610b2b82610aea565b602082019050919050565b60006020820190508181036000830152610b4f81610b13565b9050919050565b7f53656c6c657220686173206e6f7420796574206465706f736974656400000000600082015250565b6000610b8c601c836109db565b9150610b9782610b56565b602082019050919050565b60006020820190508181036000830152610bbb81610b7f565b9050919050565b600081905092915050565b50565b6000610bdd600083610bc2565b9150610be882610bcd565b600082019050919050565b6000610bfe82610bd0565b9150819050919050565b7f5061796d656e7420746f2073656c6c6572206661696c65642e00000000000000600082015250565b6000610c3e6019836109db565b9150610c4982610c08565b602082019050919050565b60006020820190508181036000830152610c6d81610c31565b9050919050565b7f4465706f73697420726566756e6420746f2073656c6c6572206661696c65642e600082015250565b6000610caa6020836109db565b9150610cb582610c74565b602082019050919050565b60006020820190508181036000830152610cd981610c9d565b9050919050565b7f4e487b7100000000000000000000000000000000000000000000000000000000600052601160045260246000fd5b6000610d1a826109a7565b9150610d25836109a7565b9250828203905081811115610d3d57610d3c610ce0565b5b92915050565b7f526573696475616c206465706f73697420726566756e6420746f20627579657260008201527f206661696c65642e000000000000000000000000000000000000000000000000602082015250565b6000610d9f6028836109db565b9150610daa82610d43565b604082019050919050565b60006020820190508181036000830152610dce81610d92565b9050919050565b7f4f6e6c792073656c6c65722063616e206465706f7369742e0000000000000000600082015250565b6000610e0b6018836109db565b9150610e1682610dd5565b602082019050919050565b60006020820190508181036000830152610e3a81610dfe565b9050919050565b7f53656c6c65722068617320616c7265616479206465706f73697465642e000000600082015250565b6000610e77601d836109db565b9150610e8282610e41565b602082019050919050565b60006020820190508181036000830152610ea681610e6a565b9050919050565b7f4465706f73697420616d6f756e742073686f756c6420626520657175616c207460008201527f6f20746865206465706f73697420616d6f756e74207370656369666965642e00602082015250565b6000610f09603f836109db565b9150610f1482610ead565b604082019050919050565b60006020820190508181036000830152610f3881610efc565b9050919050565b7f4f6e6c792062757965722063616e206465706f7369742e000000000000000000600082015250565b6000610f756017836109db565b9150610f8082610f3f565b602082019050919050565b60006020820190508181036000830152610fa481610f68565b9050919050565b7f42757965722068617320616c7265616479206465706f73697465642e00000000600082015250565b6000610fe1601c836109db565b9150610fec82610fab565b602082019050919050565b6000602082019050818103600083015261101081610fd4565b905091905056fea264697066735822122035b3a30861e654968039b9354ede8cb0579d0b165239f2bdb7e27ff2f4e53e3864736f6c63430008120033",
  "linkReferences": {},
  "deployedLinkReferences": {}
}