{
  "_format": "hh-sol-artifact-1",
  "contractName": "SaferDoubleDepositEscrow",
  "sourceName": "contracts/SaferDoubleDepositEscrow.sol",
  "abi": [
    {
      "inputs": [
        {
          "internalType": "address payable",
          "name": "_buyer",
          "type": "address"
        },
        {
          "internalType": "address payable",
          "name": "_seller",
          "type": "address"
        },
        {
          "internalType": "uint256",
          "name": "_paymentAmount",
          "type": "uint256"
        },
        {
          "internalType": "uint256",
          "name": "_depositAmount",
          "type": "uint256"
        }
      ],
      "stateMutability": "nonpayable",
      "type": "constructor"
    },
    {
      "inputs": [],
      "name": "approve",
      "outputs": [],
      "stateMutability": "nonpayable",
      "type": "function"
    },
    {
      "inputs": [],
      "name": "buyer",
      "outputs": [
        {
          "internalType": "address payable",
          "name": "",
          "type": "address"
        }
      ],
      "stateMutability": "view",
      "type": "function"
    },
    {
      "inputs": [],
      "name": "buyerDeposited",
      "outputs": [
        {
          "internalType": "bool",
          "name": "",
          "type": "bool"
        }
      ],
      "stateMutability": "view",
      "type": "function"
    },
    {
      "inputs": [],
      "name": "buyer_deposit",
      "outputs": [],
      "stateMutability": "payable",
      "type": "function"
    },
    {
      "inputs": [],
      "name": "completed",
      "outputs": [
        {
          "internalType": "bool",
          "name": "",
          "type": "bool"
        }
      ],
      "stateMutability": "view",
      "type": "function"
    },
    {
      "inputs": [],
      "name": "contractBalance",
      "outputs": [
        {
          "internalType": "uint256",
          "name": "",
          "type": "uint256"
        }
      ],
      "stateMutability": "view",
      "type": "function"
    },
    {
      "inputs": [],
      "name": "depositAmount",
      "outputs": [
        {
          "internalType": "uint256",
          "name": "",
          "type": "uint256"
        }
      ],
      "stateMutability": "view",
      "type": "function"
    },
    {
      "inputs": [],
      "name": "isApproved",
      "outputs": [
        {
          "internalType": "bool",
          "name": "",
          "type": "bool"
        }
      ],
      "stateMutability": "view",
      "type": "function"
    },
    {
      "inputs": [],
      "name": "paymentAmount",
      "outputs": [
        {
          "internalType": "uint256",
          "name": "",
          "type": "uint256"
        }
      ],
      "stateMutability": "view",
      "type": "function"
    },
    {
      "inputs": [
        {
          "internalType": "address",
          "name": "",
          "type": "address"
        }
      ],
      "name": "pendingWithdrawals",
      "outputs": [
        {
          "internalType": "uint256",
          "name": "",
          "type": "uint256"
        }
      ],
      "stateMutability": "view",
      "type": "function"
    },
    {
      "inputs": [],
      "name": "seller",
      "outputs": [
        {
          "internalType": "address payable",
          "name": "",
          "type": "address"
        }
      ],
      "stateMutability": "view",
      "type": "function"
    },
    {
      "inputs": [],
      "name": "sellerDeposited",
      "outputs": [
        {
          "internalType": "bool",
          "name": "",
          "type": "bool"
        }
      ],
      "stateMutability": "view",
      "type": "function"
    },
    {
      "inputs": [],
      "name": "seller_deposit",
      "outputs": [],
      "stateMutability": "payable",
      "type": "function"
    },
    {
      "inputs": [],
      "name": "withdraw",
      "outputs": [],
      "stateMutability": "nonpayable",
      "type": "function"
    }
  ],
  "bytecode": "0x6101006040523480156200001257600080fd5b50604051620018a8380380620018a8833981810160405281019062000038919062000251565b600073ffffffffffffffffffffffffffffffffffffffff168473ffffffffffffffffffffffffffffffffffffffff1614158015620000a35750600073ffffffffffffffffffffffffffffffffffffffff168373ffffffffffffffffffffffffffffffffffffffff1614155b620000e5576040517f08c379a0000000000000000000000000000000000000000000000000000000008152600401620000dc9062000324565b60405180910390fd5b8181116200012a576040517f08c379a0000000000000000000000000000000000000000000000000000000008152600401620001219062000396565b60405180910390fd5b8373ffffffffffffffffffffffffffffffffffffffff1660808173ffffffffffffffffffffffffffffffffffffffff16815250508273ffffffffffffffffffffffffffffffffffffffff1660a08173ffffffffffffffffffffffffffffffffffffffff16815250508160c081815250508060e0818152505050505050620003b8565b600080fd5b600073ffffffffffffffffffffffffffffffffffffffff82169050919050565b6000620001de82620001b1565b9050919050565b620001f081620001d1565b8114620001fc57600080fd5b50565b6000815190506200021081620001e5565b92915050565b6000819050919050565b6200022b8162000216565b81146200023757600080fd5b50565b6000815190506200024b8162000220565b92915050565b600080600080608085870312156200026e576200026d620001ac565b5b60006200027e87828801620001ff565b94505060206200029187828801620001ff565b9350506040620002a4878288016200023a565b9250506060620002b7878288016200023a565b91505092959194509250565b600082825260208201905092915050565b7f5a65726f20616464726573730000000000000000000000000000000000000000600082015250565b60006200030c600c83620002c3565b91506200031982620002d4565b602082019050919050565b600060208201905081810360008301526200033f81620002fd565b9050919050565b7f4465706f736974206d757374206265203e207061796d656e7400000000000000600082015250565b60006200037e601983620002c3565b91506200038b8262000346565b602082019050919050565b60006020820190508181036000830152620003b1816200036f565b9050919050565b60805160a05160c05160e0516114696200043f6000396000818161050c0152818161057d0152818161077801528181610a0c0152610b9301526000818161052d0152818161055c0152610a930152600081816102e6015281816105af015261069a01526000818161030a0152818161062501528181610a300152610ab701526114696000f3fe6080604052600436106100dd5760003560e01c80637c1489521161007f5780639d9a7fe9116100595780639d9a7fe914610247578063c35905c614610272578063da4c829f1461029d578063f3f43703146102a7576100dd565b80637c148952146101c65780638b7afe2e146101f15780638f8b252e1461021c576100dd565b806328f371aa116100bb57806328f371aa1461012e5780633ccfd60b14610159578063419759f5146101705780637150d8ae1461019b576100dd565b806308551a53146100e257806312424e3f1461010d5780631b5d310614610124575b600080fd5b3480156100ee57600080fd5b506100f76102e4565b6040516101049190610c68565b60405180910390f35b34801561011957600080fd5b50610122610308565b005b61012c610698565b005b34801561013a57600080fd5b506101436107f5565b6040516101509190610c9e565b60405180910390f35b34801561016557600080fd5b5061016e610808565b005b34801561017c57600080fd5b50610185610a0a565b6040516101929190610cd2565b60405180910390f35b3480156101a757600080fd5b506101b0610a2e565b6040516101bd9190610c68565b60405180910390f35b3480156101d257600080fd5b506101db610a52565b6040516101e89190610c9e565b60405180910390f35b3480156101fd57600080fd5b50610206610a63565b6040516102139190610cd2565b60405180910390f35b34801561022857600080fd5b50610231610a6b565b60405161023e9190610c9e565b60405180910390f35b34801561025357600080fd5b5061025c610a7e565b6040516102699190610c9e565b60405180910390f35b34801561027e57600080fd5b50610287610a91565b6040516102949190610cd2565b60405180910390f35b6102a5610ab5565b005b3480156102b357600080fd5b506102ce60048036038101906102c99190610d30565b610c0f565b6040516102db9190610cd2565b60405180910390f35b7f000000000000000000000000000000000000000000000000000000000000000081565b7f000000000000000000000000000000000000000000000000000000000000000073ffffffffffffffffffffffffffffffffffffffff163373ffffffffffffffffffffffffffffffffffffffff1614610396576040517f08c379a000000000000000000000000000000000000000000000000000000000815260040161038d90610dba565b60405180910390fd5b600060029054906101000a900460ff16156103e6576040517f08c379a00000000000000000000000000000000000000000000000000000000081526004016103dd90610e26565b60405180910390fd5b60008054906101000a900460ff16610433576040517f08c379a000000000000000000000000000000000000000000000000000000000815260040161042a90610e92565b60405180910390fd5b600060019054906101000a900460ff16610482576040517f08c379a000000000000000000000000000000000000000000000000000000000815260040161047990610efe565b60405180910390fd5b600060039054906101000a900460ff16156104d2576040517f08c379a00000000000000000000000000000000000000000000000000000000081526004016104c990610f6a565b60405180910390fd5b6001600060026101000a81548160ff0219169083151502179055506001600060036101000a81548160ff02191690831515021790555060007f00000000000000000000000000000000000000000000000000000000000000007f00000000000000000000000000000000000000000000000000000000000000006105569190610fb9565b905060007f00000000000000000000000000000000000000000000000000000000000000007f00000000000000000000000000000000000000000000000000000000000000006105a69190610fed565b905081600160007f000000000000000000000000000000000000000000000000000000000000000073ffffffffffffffffffffffffffffffffffffffff1673ffffffffffffffffffffffffffffffffffffffff16815260200190815260200160002060008282546106179190610fb9565b9250508190555080600160007f000000000000000000000000000000000000000000000000000000000000000073ffffffffffffffffffffffffffffffffffffffff1673ffffffffffffffffffffffffffffffffffffffff168152602001908152602001600020600082825461068d9190610fb9565b925050819055505050565b7f000000000000000000000000000000000000000000000000000000000000000073ffffffffffffffffffffffffffffffffffffffff163373ffffffffffffffffffffffffffffffffffffffff1614610726576040517f08c379a000000000000000000000000000000000000000000000000000000000815260040161071d9061106d565b60405180910390fd5b600060019054906101000a900460ff1615610776576040517f08c379a000000000000000000000000000000000000000000000000000000000815260040161076d906110d9565b60405180910390fd5b7f000000000000000000000000000000000000000000000000000000000000000034146107d8576040517f08c379a00000000000000000000000000000000000000000000000000000000081526004016107cf90611145565b60405180910390fd5b6001600060016101000a81548160ff021916908315150217905550565b600060029054906101000a900460ff1681565b600260009054906101000a900460ff1615610858576040517f08c379a000000000000000000000000000000000000000000000000000000000815260040161084f906111b1565b60405180910390fd5b6001600260006101000a81548160ff0219169083151502179055506000600160003373ffffffffffffffffffffffffffffffffffffffff1673ffffffffffffffffffffffffffffffffffffffff168152602001908152602001600020549050600081116108fa576040517f08c379a00000000000000000000000000000000000000000000000000000000081526004016108f19061121d565b60405180910390fd5b6000600160003373ffffffffffffffffffffffffffffffffffffffff1673ffffffffffffffffffffffffffffffffffffffff1681526020019081526020016000208190555060003373ffffffffffffffffffffffffffffffffffffffff16826040516109659061126e565b60006040518083038185875af1925050503d80600081146109a2576040519150601f19603f3d011682016040523d82523d6000602084013e6109a7565b606091505b50509050806109eb576040517f08c379a00000000000000000000000000000000000000000000000000000000081526004016109e2906112cf565b60405180910390fd5b50506000600260006101000a81548160ff021916908315150217905550565b7f000000000000000000000000000000000000000000000000000000000000000081565b7f000000000000000000000000000000000000000000000000000000000000000081565b60008054906101000a900460ff1681565b600047905090565b600060019054906101000a900460ff1681565b600060039054906101000a900460ff1681565b7f000000000000000000000000000000000000000000000000000000000000000081565b7f000000000000000000000000000000000000000000000000000000000000000073ffffffffffffffffffffffffffffffffffffffff163373ffffffffffffffffffffffffffffffffffffffff1614610b43576040517f08c379a0000000000000000000000000000000000000000000000000000000008152600401610b3a9061133b565b60405180910390fd5b60008054906101000a900460ff1615610b91576040517f08c379a0000000000000000000000000000000000000000000000000000000008152600401610b88906113a7565b60405180910390fd5b7f00000000000000000000000000000000000000000000000000000000000000003414610bf3576040517f08c379a0000000000000000000000000000000000000000000000000000000008152600401610bea90611413565b60405180910390fd5b60016000806101000a81548160ff021916908315150217905550565b60016020528060005260406000206000915090505481565b600073ffffffffffffffffffffffffffffffffffffffff82169050919050565b6000610c5282610c27565b9050919050565b610c6281610c47565b82525050565b6000602082019050610c7d6000830184610c59565b92915050565b60008115159050919050565b610c9881610c83565b82525050565b6000602082019050610cb36000830184610c8f565b92915050565b6000819050919050565b610ccc81610cb9565b82525050565b6000602082019050610ce76000830184610cc3565b92915050565b600080fd5b6000610cfd82610c27565b9050919050565b610d0d81610cf2565b8114610d1857600080fd5b50565b600081359050610d2a81610d04565b92915050565b600060208284031215610d4657610d45610ced565b5b6000610d5484828501610d1b565b91505092915050565b600082825260208201905092915050565b7f4f6e6c792062757965722063616e20617070726f766500000000000000000000600082015250565b6000610da4601683610d5d565b9150610daf82610d6e565b602082019050919050565b60006020820190508181036000830152610dd381610d97565b9050919050565b7f416c726561647920617070726f76656400000000000000000000000000000000600082015250565b6000610e10601083610d5d565b9150610e1b82610dda565b602082019050919050565b60006020820190508181036000830152610e3f81610e03565b9050919050565b7f427579657220686173206e6f74206465706f7369746564000000000000000000600082015250565b6000610e7c601783610d5d565b9150610e8782610e46565b602082019050919050565b60006020820190508181036000830152610eab81610e6f565b9050919050565b7f53656c6c657220686173206e6f74206465706f73697465640000000000000000600082015250565b6000610ee8601883610d5d565b9150610ef382610eb2565b602082019050919050565b60006020820190508181036000830152610f1781610edb565b9050919050565b7f457363726f7720616c726561647920636f6d706c657465640000000000000000600082015250565b6000610f54601883610d5d565b9150610f5f82610f1e565b602082019050919050565b60006020820190508181036000830152610f8381610f47565b9050919050565b7f4e487b7100000000000000000000000000000000000000000000000000000000600052601160045260246000fd5b6000610fc482610cb9565b9150610fcf83610cb9565b9250828201905080821115610fe757610fe6610f8a565b5b92915050565b6000610ff882610cb9565b915061100383610cb9565b925082820390508181111561101b5761101a610f8a565b5b92915050565b7f4f6e6c792073656c6c65722063616e206465706f736974000000000000000000600082015250565b6000611057601783610d5d565b915061106282611021565b602082019050919050565b600060208201905081810360008301526110868161104a565b9050919050565b7f53656c6c657220616c7265616479206465706f73697465640000000000000000600082015250565b60006110c3601883610d5d565b91506110ce8261108d565b602082019050919050565b600060208201905081810360008301526110f2816110b6565b9050919050565b7f496e636f72726563742073656c6c6572206465706f73697420616d6f756e7400600082015250565b600061112f601f83610d5d565b915061113a826110f9565b602082019050919050565b6000602082019050818103600083015261115e81611122565b9050919050565b7f5265656e7472616e63792067756172643a2072652d656e746572656400000000600082015250565b600061119b601c83610d5d565b91506111a682611165565b602082019050919050565b600060208201905081810360008301526111ca8161118e565b9050919050565b7f4e6f7468696e6720746f20776974686472617700000000000000000000000000600082015250565b6000611207601383610d5d565b9150611212826111d1565b602082019050919050565b60006020820190508181036000830152611236816111fa565b9050919050565b600081905092915050565b50565b600061125860008361123d565b915061126382611248565b600082019050919050565b60006112798261124b565b9150819050919050565b7f5769746864726177206661696c65640000000000000000000000000000000000600082015250565b60006112b9600f83610d5d565b91506112c482611283565b602082019050919050565b600060208201905081810360008301526112e8816112ac565b9050919050565b7f4f6e6c792062757965722063616e206465706f73697400000000000000000000600082015250565b6000611325601683610d5d565b9150611330826112ef565b602082019050919050565b6000602082019050818103600083015261135481611318565b9050919050565b7f427579657220616c7265616479206465706f7369746564000000000000000000600082015250565b6000611391601783610d5d565b915061139c8261135b565b602082019050919050565b600060208201905081810360008301526113c081611384565b9050919050565b7f496e636f7272656374206275796572206465706f73697420616d6f756e740000600082015250565b60006113fd601e83610d5d565b9150611408826113c7565b602082019050919050565b6000602082019050818103600083015261142c816113f0565b905091905056fea264697066735822122008d51860e9e5ec04133db91acff24c6209c1849dc8a99baf1767a6923b119caa64736f6c63430008120033",
  "linkReferences": {},
  "deployedLinkReferences": {}
}